:100000000C9470010C9498010C9498010C94980134
:100010000C9498010C9498010C9498010C949801FC
:100020000C9498010C9498010C9498010C949801EC
:100030000C9498010C9498010C9498010C949801DC
:100040000C946B1B0C9498010C94C0040C94FC044D
:100050000C9498010C9498010C9498010C949801BC
:100060000C9498010C949801414141414141414116
:100070004242424242424242454545454545454548
:1000800046464646464646465252525252525252B0
:10009000E916D516C116AD169916851671165D1698
:1000A000651678168B169E16B116C416D716EA1664
:1000B0004916351621160D16FD1611172517391775
:1000C0006C1680169416A816BC16D016E416F816F0
:1000D0001A163F1664168916AE16D316F8161D1793
:1000E0000000000000000000010101010101010108
:1000F00002020202020202020303030303030303D8
:100100000404040404040404A0A1A2A3A4A5A6A7B3
:10011000A8A9AAABACADAEAFB0B1B2B3B4B5B6B7E7
:10012000B8B9BABBBCBDBEBFC0C1C2C3C4C5C6C7D7
:10013000052A9B29912987291D29132909299F28E7
:1001400003290C2916291F29892992299C29052A66
:1001500095288B28812817280F2A192A832A8D2A67
:10016000062910291A2984298E299829022A0C2A5D
:100170001D2890280229152987299A290C2A1F2A27
:1001800000407A10F35A00A0724E18090010A5D44E
:10019000E80000E87648170000E40B54020000CAAB
:1001A0009A3B000000E1F5050000809698000000F1
:1001B00040420F000000A086010000001027000050
:1001C0000000E803000000006400000000000A00D6
:1001D000000000000100000000002C76D888DC67D9
:1001E0004F0823DFC1DFAE59E1B1B796E5E3E45331
:1001F000C63AE651997696E8E6C28426EB898C9B4E
:1002000062ED407C6FFCEFBC9C9F40F2BAA56FA5ED
:10021000F490055A2AF75C936B6CF9676DC11BFC6F
:10022000E0E40D47FEF520E6B500D0ED902E03008A
:10023000943577050080841E080000204E0A0000D7
:1002400000C80C333333330F986E12831141EF8D96
:100250002114893BE65516CFFEE6DB18D1844B38D6
:100260001BF77C1D901DA4BBE424203284725E2207
:100270008100C9F124ECA1E53D276E616E00696E35
:10028000660000000000240027002A000000000093
:10029000250028002B000000000023002600290074
:1002A000040404040404040402020202020203031C
:1002B0000303030301020408102040800102040824
:1002C00010200102040810200000000700020100B5
:1002D00000030406000000000000000098056A13F7
:1002E00011241FBECFEFD8E0DEBFCDBF15E0A0E0E8
:1002F000B1E0E6EDF0E402C005900D92AC3EB1072E
:10030000D9F717E0ACEEB5E001C01D92A93BB107EB
:10031000E1F712E0C0EED2E004C02297FE010E9495
:100320006520CC3DD107C9F70E94671D0C94692058
:100330000C940000283008F027E03327DA01990FE9
:10034000311D87FD916000966105710539F43260B9
:100350002E5F3D9330E32A95E1F708959F3F30F0FB
:1003600080387105610509F03C5F3C5F3D93913039
:1003700008F08068911DDF93CF931F930F93FF9236
:10038000EF92192F987F9695E92F96959695E90FFC
:10039000FF27E652FE4F99273327EE24FF24A701BB
:1003A000E70105900894079428F4360FE71EF81E1D
:1003B000491F511D660F771F881F991F0694A1F7CB
:1003C0000590079428F4E70EF81E491F561FC11D1B
:1003D000770F881F991F661F0694A1F70590079451
:1003E00028F4F80E491F561FC71FD11D880F991FEB
:1003F000661F771F0694A1F70590079420F4490F14
:10040000561FC71FD81F990F661F771F881F069496
:10041000A9F784911095177041F0D695C795579517
:100420004795F794E7941A95C1F7E0E8F1E06894EE
:100430001590159135916591959105907FE2739591
:10044000E118F10A430B560BC90BD009C0F7E10CB8
:10045000F11E431F561FC91FD01D7EF4703311F4C7
:100460008A95E6CFE894015030F0080F0AF400278F
:10047000021708F4202F2395022F7A3328F079E30E
:100480007D932A95E9F710C07D932A9589F6069405
:1004900097956795379517951794E118F10A430BCF
:1004A000560BC90BD00998F023957E9173957A333A
:1004B00008F070E37C932013B8F77E9170617D9310
:1004C00030F0839571E37D9370E32A95E1F7112471
:1004D000EF90FF900F911F91CF91DF91992787FDAA
:1004E00090950895FA01AA27283051F1203181F121
:1004F000E8946F936E7F6E5F7F4F8F4F9F4FAF4F2C
:10050000B1E03ED0B4E03CD0670F781F891F9A1F3E
:10051000A11D680F791F8A1F911DA11D6A0F711DF2
:10052000811D911DA11D20D009F468943F912AE0FE
:10053000269F11243019305D3193DEF6CF010895E6
:10054000462F4770405D4193B3E00FD0C9F7F6CF17
:10055000462F4F70405D4A3318F0495D31FD4052DF
:10056000419302D0A9F7EACFB4E0A6959795879575
:1005700077956795BA95C9F7009761057105089554
:100580009B01AC010A2E0694579547953795279500
:10059000BA95C9F7620F731F841F951FA01D089598
:1005A000FC010590615070400110D8F7809590953E
:1005B0008E0F9F1F0895FC01615070400190011043
:1005C000D8F7809590958E0F9F1F0895FC01138298
:1005D000128288EE93E0A0E0B0E084839583A68346
:1005E000B78385EC95E0918380830895FC016115C4
:1005F000710521F06130710549F404C0108A86E06C
:10060000818B089580E4808B88E0818B0895FC01C4
:100610006487458766874787089580E090E008955E
:1006200080E090E0089580E090E008950895EF92D2
:10063000FF921F93CF93DF93162F7A0186E060E03D
:100640000E94C01C89E997E060E00E944E1389E98E
:1006500097E060E00E944E1389E997E069E00E940C
:100660004E1389E997E0612F0E944E13C0E0D0E05D
:10067000F701EC0FFD1F108189E997E06AE00E9405
:100680004E1389E997E06C2F0E944E1389E997E099
:100690006BE00E944E1389E997E0612F0E944E1390
:1006A0002196C633D10521F789E997E068E00E94D9
:1006B0004E1389E997E060EA0E944E1389E997E0BA
:1006C00060EA0E944E1385FDF9CF89E997E060E06A
:1006D0000E944E1389E997E06CE00E944E1386E079
:1006E00061E00E94C01CDF91CF911F91FF90EF90BD
:1006F0000895FF920F931F93F62E86E060E00E940C
:10070000C01C09E917E0C80163E00E944E138FE1A5
:10071000F822C8016F2D0E944E1386E061E00E940E
:10072000C01C1F910F91FF900895FF920F931F938C
:10073000F62E86E060E00E94C01C09E917E0C801BF
:1007400062E00E944E138FE3F822C8016F2D0E94D1
:100750004E1386E061E00E94C01C1F910F91FF9034
:1007600008951F93CF93DF93EC01162F86E060E08E
:100770000E94C01C89E997E060E00E944E1311308E
:1007800049F0113018F0123071F407C089E997E090
:10079000688907C068896C6102C068896C6389E9EF
:1007A00097E00E944E1386E061E00E94C01CDF913A
:1007B000CF911F910895EF92FF920F931F937C01A9
:1007C00009E917E0C80167E00E944E13C8016FEF06
:1007D0000E944E1386E061E00E94C01CF7018785ED
:1007E0008F5F87871F910F91FF90EF900895EF9291
:1007F000FF920F931F93FC01E7848EE1E89E700146
:1008000011248685E80EF11C86E060E00E94C01C81
:1008100009E917E0C80164E00E944E13C80163E0D3
:100820000E944E13C80165E00E944E13C8016F2D4F
:100830000E944E13C80166E00E944E13C8016E2D3F
:100840000E944E131F910F91FF90EF9008951F93F8
:10085000CF93DF93EC01162F6C3731F40E94DB034A
:10086000CE010E94F7030AC089E997E067E00E9481
:100870004E1389E997E0612F0E944E1381E090E0CA
:10088000DF91CF911F9108950F931F9386E060E051
:100890000E94C01C09E917E0C80164E00E944E13E1
:1008A000C80164E00E944E1386E061E00E94C01C13
:1008B0001F910F9108951F93CF93DF93EC0186E072
:1008C00061E00E94811C82E060E00E94811C82E065
:1008D00061E00E94C01C86E060E00E94C01C89E9C3
:1008E00097E06CEE0E944E1389E997E06FEF0E944B
:1008F0004E13182F89E997E060E00E944E13688933
:10090000626089E997E00E944E1362E370E080E044
:1009100090E00E94C11B89E997E06CE60E944E13AB
:100920001F7E89E997E0612F0E944E131092ED051A
:100930001092EC0517C06091EC057091ED05605FB9
:1009400089E997E00E944E1389E997E060E00E94F0
:100950004E138091EC059091ED0501969093ED0575
:100960008093EC058091EC059091ED050C971CF3BC
:10097000CE0161E00E94B103DF91CF911F910895F4
:100980001F920F920FB60F9211242F933F934F9304
:100990008F939F93EF93FF934091C60020919A0706
:1009A00030919B072F5F3F4F80919E0790919F074B
:1009B0002823392380919C0790919D072817390798
:1009C00079F080919A0790919B07E091A007F091B0
:1009D000A107E80FF91F408330939B0720939A07E4
:1009E000FF91EF919F918F914F913F912F910F9098
:1009F0000FBE0F901F9018951F920F920FB60F9277
:100A000011242F933F938F939F93EF93FF93209104
:100A1000A4073091A5078091A2079091A3072817FA
:100A20003907E9F08091A4079091A507E091A80704
:100A3000F091A907E80FF91F80818093C60080918B
:100A4000A4079091A50701962091A6073091A707CA
:100A5000822393239093A5078093A40710C020912D
:100A6000A2073091A3078091A4079091A5072817AA
:100A7000390729F48091C1008F7D8093C100FF91D7
:100A8000EF919F918F913F912F910F900FBE0F90FB
:100A90001F901895833109F443C0843180F483306A
:100AA000E9F1843028F4813049F1823078F520C0B2
:100AB000813131F1823160F58031C1F517C0833267
:100AC00089F1843238F48132E9F0823218F58032CB
:100AD00069F510C08133C1F0823318F4803331F5E9
:100AE0000BC08233C9F0833309F51EC081E9089534
:100AF00080E9089582E9089583E9089584E90895D5
:100B000085E9089586E9089587E9089588E90895B3
:100B100089E908958AE908958BE908958CE9089593
:100B20008DE908958EE908958FE908958EE8089576
:100B30008F92AF92CF92EF92FF920F931F938EEE10
:100B400095E060E045EC50E024EC30E000EC10E093
:100B5000F1ECEF2EF12CCC24C394E8E9AE2E70E238
:100B6000872E0E9493138BE096E00E94E6021F916D
:100B70000F91FF90EF90CF90AF908F90089586E007
:100B800061E00E94C01C08951F93CF93DF9380E023
:100B900061E00E94811C81E060E00E94811C81E094
:100BA00062E00E94C01C80E060E00E94C01C81E006
:100BB0000E94141DEC0181E061E00E94811C80E034
:100BC00060E00E94811C80E062E00E94C01C81E025
:100BD00060E00E94C01C80E00E94141D10E0892B80
:100BE00009F411E080E060E00E94811C80E062E096
:100BF0000E94C01C81E060E00E94811C81E062E0F4
:100C00000E94C01CCD2B31F4112311F481E007C0E8
:100C100083E005C0112311F480E001C082E0DF9180
:100C2000CF911F9108950F931F93CF93DF930E944D
:100C3000C405882311F410E01EC00FEFC0E0D0E01F
:100C40000E94C405182F801719F0C0E0D0E001C041
:100C5000219661E070E080E090E00E94C11B012FCE
:100C6000C431D10568F3112331F086E990E0909307
:100C7000B7058093B605812FDF91CF911F910F911A
:100C80000895EF92FF920F931F93262FE42E0BE00F
:100C900016E0682F61502150C801422F0E940703BF
:100CA000C8010E94F70300D000D000D0EDB7FEB716
:100CB0003196ADB7BEB712961C930E93119786E18D
:100CC00091E093838283FF24E7FCF094F582E48231
:100CD0000E9472138DB79EB706960FB6F8949EBF0A
:100CE0000FBE8DBFC8010E94DB031F910F91FF90C3
:100CF000EF9008958F929F92AF92BF92CF92DF9222
:100D0000EF92FF920F931F93CF93DF93182FF62E3E
:100D1000D42E922E84E690E0642F70E00E9413207F
:100D2000E62E972F862F63E070E00E941320862E18
:100D3000812F6F2D43E80E944106A12EA3940A2D16
:100D400011E0BB24CC24C92DD0E02AC01E9DC001D7
:100D500011248C179D073CF4802F6F2D47E80E94CB
:100D60004106B12E1BC0CC20A1F4BE9C802D1124C5
:100D7000992D981B892F90E0682D70E00E94FF1F2D
:100D8000462F4D57802F6F2D0E944106CC24C394CF
:100D900005C0802F6F2D48E80E9441061F5F0F5F3E
:100DA000D116A0F68A2D8D0D6F2D49E80E944106BF
:100DB000DF91CF911F910F91FF90EF90DF90CF9037
:100DC000BF90AF909F908F900895EF92FF920F93F6
:100DD0001F93262F7A010BE016E0682F61502150F7
:100DE000C801422F0E940703C8010E94F70300D0E8
:100DF00000D000D0EDB7FEB73196ADB7BEB71296B2
:100E00001C930E93119789E191E093838283F5827D
:100E1000E4820E9472138DB79EB706960FB6F894BF
:100E20009EBF0FBE8DBFC8010E94DB031F910F91B3
:100E3000FF90EF900895EF92FF920F931F93262F4C
:100E40007A010BE016E0682F61502150C801422F53
:100E50000E940703C8010E94F70300D000D000D011
:100E6000EDB7FEB73196ADB7BEB712961C930E9391
:100E700011978CE191E093838283F582E4820E9452
:100E800072138DB79EB706960FB6F8949EBF0FBE2D
:100E90008DBFC8010E94DB031F910F91FF90EF905F
:100EA00008958F929F92AF92BF92CF92DF92FF925E
:100EB0000F931F93DF93CF93CDB7DEB7C854D040C5
:100EC0000FB6F894DEBF0FBECDBF8BE096E00E9458
:100ED000440482E063E04FE151E00E941B0782E09E
:100EE00065E04CE351E00E941B0768EE73E080E090
:100EF00090E00E94C11B8EEE95E040E051EE60E074
:100F000070E00E9483138EEE95E064E571E00E942C
:100F1000931E8EEE95E065E571E00E94931E00E061
:100F200010E0CC24DD24A9E0AA2EB12CAC0EBD1E0D
:100F30004E010894811C911C8EEE95E00E941514C0
:100F4000982F8D3031F08D30DCF180538230C0F538
:100F500030C088E0F81699F59981892F8053823046
:100F600070F5913311F490E801C090E08A818133EB
:100F700009F4905C8B81813309F4905E8C8181331C
:100F800009F4905F8D81813309F4985F8E818133FC
:100F900009F49C5F8F81813309F49E5F88858133DA
:100FA00009F49F5FF501E00FF11F90830F5F1F4F62
:100FB00006C0F401EF0DF11D9083F39401C0FF24EE
:100FC00000341105C1F48BE096E0B601A5010E9442
:100FD00017030894C11CD11C8EEE95E0B6014AE0BF
:100FE00050E00E94801E8EEE95E06BE671E00E945C
:100FF000931E00E010E08FEFC816D1040CF49CCFD4
:101000008EEE95E067E771E00E94931EFFCFDF92BE
:10101000EF92FF920F931F93F82E062FD42EE22EFD
:1010200011E00FC0E11629F48F2D602F48E951E03F
:1010300004C08F2D602F4AE951E00E941B071F5FFB
:101040000F5FD11678F71F910F91FF90EF90DF900F
:1010500008958BE096E00E94440486E062E04DE94A
:1010600051E00E941B0786E063E041EB51E00E94E3
:101070001B0786E064E045EC51E00E941B0786E018
:1010800065E049ED51E00E941B0786E066E04DEE09
:1010900051E00E941B0786E067E041E052E00E94B9
:1010A0001B0786E068E045E152E00E941B0786E0EE
:1010B00069E049E252E00E941B0786E06AE04DE3E6
:1010C00052E00E941B0786E06BE041E552E00E947F
:1010D0001B078091C806882329F481E167E045E673
:1010E00052E004C081E167E04CE652E00E941B0739
:1010F0008091B505882329F481E168E043E752E057
:1011000004C081E168E048E752E00E941B070895AF
:101110008BE096E00E94440486E062E04DE752E0F6
:101120000E941B0786E063E040E952E00E941B0733
:1011300086E064E043EA52E00E941B0786E065E037
:1011400046EB52E00E941B0786E066E049EC52E065
:101150000E941B0786E067E04CED52E00E941B07EF
:1011600086E068E04FEE52E00E941B0786E069E0EF
:1011700042E053E00E941B0786E06AE045E153E04D
:101180000E941B070895EF92FF920F931F93CF9336
:10119000DF93182F82E064E048E253E00E941B07CF
:1011A000C12FD0E0FE01E859FF4FE4918AE064E0EE
:1011B0004E2F0E9441061770412F485E110F812F5C
:1011C000835F64E00E944106FE01EE0FFF1FE057BF
:1011D000FF4F459154918AE065E00E94E50682E068
:1011E0006DE044E453E00E941B0700E0C052DF4F73
:1011F000FE011491C12FD0E083E0CC0FDD1F8A9552
:10120000E1F716E6E12EF12CE02FEC0F4E2F50E027
:101210009A01220F331F20573F4FF9018591949176
:10122000485F5E4FFA0144918D5096419C012E9D7E
:10123000C0012F9D900D3E9D900D112460E472E041
:101240000E94FF1F862F86958E5F6DE00E944106EB
:101250000F5F0830C9F6DF91CF911F910F91FF907A
:10126000EF9008957F928F929F92AF92BF92CF920C
:10127000DF92EF92FF920F931F93DF93CF93CDB73F
:10128000DEB76C970FB6F894DEBF0FBECDBFC82E89
:101290001C8EDD245E010894A11CB11C3CE1832E50
:1012A000912C8C0E9D1E2AE0722E13C0F8018081B5
:1012B0000E944A05F70181937F010A5F1F4FE815DD
:1012C000F905A1F7672D6D1982E0A5010E941B07A2
:1012D000D394DC1430F40D2D10E00253194F750136
:1012E000E5CF6C960FB6F894DEBF0FBECDBFCF91A1
:1012F000DF911F910F91FF90EF90DF90CF90BF9003
:10130000AF909F908F907F900895CF92DF92EF9251
:10131000FF920F931F93DF93CF93CDB7DEB76C97F8
:101320000FB6F894DEBF0FBECDBF482FDE01119679
:10133000E3E6F3E08CE101900D928150E1F700E0EB
:1013400010E066E6C62ED12C7E010894E11CF11C4B
:10135000F801E059F84FE081E81728F5F801E45E5C
:10136000F94FE0812E2F30E0F901EE0FFF1FE0571B
:10137000FF4F85919491285F3E4FF90124918D5044
:101380009641BC016C9DC0016D9D900D7C9D900DA2
:10139000112460E472E00E94FF1F6695F701E60FDA
:1013A000F11D2083E0E00F5F1F4F0932110511F09E
:1013B0008E2FCECF82E0642FAE014F5F5F4F0E9431
:1013C0001B076C960FB6F894DEBF0FBECDBFCF9152
:1013D000DF911F910F91FF90EF90DF90CF900895D4
:1013E0002F923F924F925F926F927F928F929F9235
:1013F000AF92BF92CF92DF92EF92FF920F931F9323
:10140000DF93CF93CDB7DEB7A5970FB6F894DEBFC5
:101410000FBECDBF8D8F742E34E6341710F454E612
:10142000752E6D50764186E690E0AC01649FC00158
:10143000659F900D749F900D112460E472E00E94EE
:10144000FF1F162F1695A62EA09451E0A522222349
:10145000F1F0DE011196E3E6F3E08CE101900D92EC
:101460008150E1F7FE013196812F90E0AA2021F012
:10147000E80FF91F81E803C0E80FF91F82E88083B5
:1014800082E06CE0AE014F5F5F4F0E941B0784E675
:1014900090E06D8D70E00E941320862E972F862F8E
:1014A00063E070E00E941320662EBB24B39499245D
:1014B00060E0812F90E08C01000F111F080F191FB1
:1014C000000F111FA82DB0E0BF8FAE8FE72DF0E009
:1014D000F9A3E8A39C01205A394F3BA32AA3AC01EE
:1014E0004B5B594F5DA34CA326E9222E26E0322EFA
:1014F000280E391E9C012F5F3F4F6901CC0CDD1C6B
:10150000C20ED31ECC0CDD1CFBE74F2EF6E05F2E87
:10151000480E591E01977C01EE0CFF1CE80EF91EC7
:10152000EE0CFF1C7BC04B2D50E09A012150304047
:10153000F801E20FF31FE253F94FE081EF3F09F4A6
:10154000E0E0AE8DBF8D4A9FC0014B9F900D5A9F2A
:10155000900D112448A159A1841795075CF4AA2085
:1015600021F09E2F9F70906303C09E2F907F936009
:101570009B2C21C06623C1F4989C802D1124572DEB
:10158000581B852F90E0662D70E00E94FF1FAA2057
:1015900031F0EF70962F9295907F9E2B03C09E2F77
:1015A000907F962B61E007C0AA2019F09E2F9F70B4
:1015B00002C09E2F907FAAA1BBA18C91882321F00D
:1015C000892F82958F70982BECA1FDA180818823B3
:1015D00021F0892F8295807F982BF801E20FF31F6D
:1015E000E253F94F9083D1018C91882331F0F601B9
:1015F000E20FF31FE253F94F9083F20180818823B9
:1016000061F0F701E20FF31FE253F94F200F311F92
:101610002253394FD9018C918083B394BD8DBB1572
:1016200008F081CFA5960FB6F894DEBF0FBECDBFF0
:10163000CF91DF911F910F91FF90EF90DF90CF90AE
:10164000BF90AF909F908F907F906F905F904F90E2
:101650003F902F900895AF92BF92CF92DF92EF927A
:10166000FF920F931F93D82EC62E80E10E945F1C1D
:101670007C016BE0A62E66E0B62EDA94CA94C50112
:101680006D2D4C2D0E940703C5010E94F7038DB7F5
:101690009EB70A970FB6F8949EBF0FBE8DBFCDB60A
:1016A000DEB60894C11CD11CEDB7FEB7B282A18290
:1016B0008FE793E0F6019383828380ED90E095833A
:1016C000848300E010E0C801B7010E94EF1E2AE009
:1016D00038E240EA5BE30E947D1F20E030E048E70B
:1016E00051E40E947D1FF60166837783808791878E
:1016F0000E9472138DB79EB70A960FB6F8949EBFDC
:101700000FBE8DBFC5010E94DB031F910F91FF909B
:10171000EF90DF90CF90BF90AF9008951F93182F58
:101720008BE096E00E94440482E061E047E853E0E9
:101730000E941B07112349F482E062E043EA53E070
:101740000E941B0782E063E00EC082E062E04BED86
:1017500053E00E941B0782E063E047EF53E00E94E2
:101760001B0782E064E04FEB53E00E941B0782E01E
:101770006BE043E154E00E941B0786E00E943209BF
:101780008AE067E04FE254E00E941B0787E162E0D5
:101790000E942B0B1F910895AF92BF92CF92DF92C0
:1017A000EF92FF920F931F9300E010E0FF248FE071
:1017B0000E945F1C080F191FF3948AE0F816B9F70E
:1017C000C8016AE070E00E94FF1F9B018091B20592
:1017D0008530B1F48091C1069091C20668177907EF
:1017E00020F47093C2066093C1068091C306909165
:1017F000C4068217930720F43093C4062093C306CF
:101800004091BD065091BE062417350710F4BA0169
:1018100009C08091BF069091C006B9018217930755
:1018200008F4BC0100D000D0641B750B80E090E090
:10183000E090BF06F090C006E41AF50A00E010E060
:1018400024E630E040E050E0EDB7FEB7218332837C
:101850004383548320E030E040E050E0E1E0AE2EEE
:10186000B12CC12CD12C0E94A61E0F900F900F906E
:101870000F90CB011F910F91FF90EF90DF90CF90D1
:10188000BF90AF9008950E94B31B2091B70630918E
:10189000B806CB01821B930B8E31910540F46EE1AB
:1018A00070E0681B790B80E090E00E94C11B0895F6
:1018B00081E090E00E941A1C85E061E00E94C01C5B
:1018C00081E090E00E941A1C089581E090E00E945F
:1018D0001A1C85E060E00E94C01C81E090E00E943C
:1018E0001A1C08958DE060E00E94C01C81E090E029
:1018F0000E941A1C8BE060E00E94C01C81E090E016
:101900000E941A1C8DE061E00E94C01C81E090E002
:101910000E941A1C8DE060E00E94C01C81E090E0F3
:101920000E941A1C08958DE060E00E94C01C81E0B6
:1019300090E00E941A1C8BE061E00E94C01C81E0D4
:1019400090E00E941A1C8DE061E00E94C01C81E0C2
:1019500090E00E941A1C8DE060E00E94C01C81E0B3
:1019600090E00E941A1C0895FF920F931F93E82F96
:10197000F0E0EE0FFF1FE05DFE4F059114911CBCDF
:101980000E94580C0E94650C0E94930C0E94720CDD
:101990000E94720C0E94720C0E94930CA0E1FA2E1D
:1019A00000FF03C00E94930C02C00E94720CFA94C4
:1019B00019F016950795F4CF0E94720C0E94720CD4
:1019C0000E94720C0E94720C0E94580C89E997E0E8
:1019D00060E00E9447131F910F91FF900895FF92BE
:1019E0000F931F93CF93DF93F82EEEECF6E08FEF7B
:1019F000808381838283838384838583369697E083
:101A0000E037F907A9F7CDE1D6E010E00881802F93
:101A10000E94B40C0E94B31B6093B7067093B80683
:101A20008093B9069093BA060E94430C0E94CC0B97
:101A3000482F8093B306181708F4182FE02FF0E012
:101A4000EE0FFF1FE057FF4F659174918F2D20E03F
:101A50000E94F009219686E0C534D807B9F680E5E2
:101A6000189FC001112464E670E00E94FF1F60937C
:101A7000B905DF91CF911F910F91FF9008950F93BA
:101A80001F93182F062F8BE096E00E94440482E0FB
:101A900061E047E853E00E941B07112371F4809135
:101AA000C806813029F482E062E04AE354E009C0CC
:101AB00082E062E046E554E004C082E062E042E792
:101AC00054E00E941B0787E162E00E942B0B82E03A
:101AD00063E04EE854E00E941B0782E065E04AEABA
:101AE00054E00E941B0782E066E046EC54E00E944E
:101AF0001B0782E067E04FEB53E00E941B0782E088
:101B00006BE043E154E00E941B07802F0E94C30852
:101B100083E00E9432098AE069E04FE254E00E94CB
:101B20001B0783E00E94EF0C8FEF8093B50683E0E4
:101B30000E9432091F910F910895CF92DF92EF9288
:101B4000FF920F931F93CF93DF932091B6053091AF
:101B5000B7052115310521F08091C906813029F59D
:101B60008BE096E060E00E94B10306C064E670E09E
:101B700080E090E00E94C11B0E9413068823B1F30D
:101B800086E990E09093B7058093B6051092C90658
:101B90008BE096E06091CB060E94B1030E94130691
:101BA0008823E1F71092C9060AC08091CA068823EB
:101BB00031F4215030403093B7052093B605809121
:101BC000B205843009F435C40E941306833009F04D
:101BD00030C48091B406863038F086E08093B20538
:101BE00081E08093C70603C08F5F8093B406809125
:101BF000BC06882339F49091B2058091B4059817FA
:101C000009F47EC01092BC068091B205833009F4BD
:101C10004BC0843038F4813009F446C0823009F07A
:101C200065C009C0853039F0853008F451C0863070
:101C300009F05CC053C0823021F480E00E948E0B1A
:101C400029C081E00E948E0B1092BE061092BD0644
:101C500080E991E09093C0068093BF069093C206FE
:101C60008093C1061092C4061092C30685E090E0EE
:101C70009093C6068093C506EEECF6E08FEF808366
:101C800081838283838384838583369697E0E037DC
:101C9000F907A9F71092B10680911D068093B2064C
:101CA00082E08093CB061FC0833011F480E002C035
:101CB000813021F46091B2060E943F0D81E0809353
:101CC000B6068093CD068093CB061092CA060EC04E
:101CD00082E08093CB060E94290805C082E08093B1
:101CE000CB060E94880881E08093CA068BE096E0CC
:101CF0006091CB060E94B1038091B2058093B40538
:101D00008091B205833021F0813009F0DAC046C0FD
:101D10000E941306823001F58091C806813051F48B
:101D20008091B2068F5F8093B2068832A8F010923D
:101D3000B20612C08091CC06873220F48F5F809368
:101D4000CC0602C01092CC06E091CC06F0E0E35E37
:101D5000F94F80818093B2060E9413068130F1F41E
:101D60008091C806813049F48091B20681508093F9
:101D7000B206883298F087E20FC08091CC068823A3
:101D800011F0815001C087E28093CC06E091CC062F
:101D9000F0E0E35EF94F80818093B2062091B206B5
:101DA000EDE1F6E090E08081821729F09F5F3196A7
:101DB0009832C9F790E09093B1060E94430C0E94BC
:101DC000CC0B482F8093B3068091B206E82FF0E049
:101DD000EE0FFF1FE057FF4F6591749183E021E004
:101DE0000E94F00983E00E94320989E066E041E147
:101DF0002091B3060E947A068091B2060E94C30821
:101E00001091B205113009F0EEC28091BB06882313
:101E1000A9F58091B606882359F49091B306809174
:101E2000B905891728F41093BB061092CA06DBC2C5
:101E30001092B60681E08093CA068091CD069091FB
:101E4000B106882339F0973210F49F5F06C01092D4
:101E5000B10609C0992321F091509093B10603C0B7
:101E600087E28093B106E091B106F0E0E35EF94FBE
:101E700080818093B2060E94C308B5C282E062E00E
:101E800042EE54E00E941B070E941306823039F490
:101E90001093B6061093CD061092BB060CC00E949C
:101EA0001306813009F09FC28093B6061092CD06CA
:101EB0001092BB0682E062E044EF54E00E941B07F0
:101EC00092C2823019F0853009F018C1CEECD6E00C
:101ED000FE018FEF80838183828383838483858364
:101EE000369697E0E037F907A9F710E0DD2456E0D1
:101EF000C52E6AC0E12EFF24F701E35EF94F008191
:101F0000802F0E94B40C0E94B31B6093B70670939D
:101F1000B8068093B9069093BA0628C00E941306AB
:101F2000833021F4C092B406DD24D3948091B205AD
:101F30008530E1F00E9413068230C1F483E062E054
:101F400046E055E00E941B070E9413068230E1F331
:101F50000E9413068823E1F383E062E048E155E044
:101F60000E941B070E9413068230E1F30E94B31BFC
:101F70002091B7063091B8064091B9065091BA0643
:101F8000621B730B840B950B6E31710581059105F6
:101F900028F20E94CC0B8093B306F701E059F84F6A
:101FA000843210F0808301C01082E02FF0E0EE0F49
:101FB000FF1FE057FF4F6591749186E04091B30693
:101FC00020E00E94F0091F5FDD2019F4183208F4A8
:101FD00091CF86E00E94320984E00E9485098091B9
:101FE000B205853009F077C08091C5069091C6068C
:101FF00001979093C6068093C506019609F04DC0DF
:102000008091C1069091C206482F8093BD0690939F
:10201000BE068091C3069091C4060A969093C006AE
:102020008093BF068BEA97E062E070E00E942A1A74
:102030004091BE068BEA97E063E070E00E942A1AA6
:102040008BEA97E064E070E04091BF060E942A1A94
:102050004091C0068BEA97E065E070E00E942A1A82
:102060008091B3058093B20586E06DE04AE255E0C9
:102070000E941B0768EE73E080E090E00E94C11BA5
:102080008FEF888389838A838B838C838D832696C5
:1020900097E0C037D907A9F71EC082E063E04CE3A0
:1020A00055E00E941B074091C5065091C60687E087
:1020B00063E00E94E5064091C1065091C2068EE0A1
:1020C00063E00E94E5064091C3065091C40688E192
:1020D00063E00E94E5068091B106873220F48F5FAD
:1020E0008093B10602C01092B106E091B106F0E013
:1020F000E35EF94F80818093B20675C1863009F0A6
:1021000087C087E065E045E021E00E94070810E015
:102110000FEFFF24F39476C08091C706882331F037
:102120001092C7060E9413068823E1F70E94130647
:10213000833081F4143010F010E001C01F5F212FB4
:102140002F5F87E065E045E00E9407080E941306C4
:102150008330E1F30E941306823009F053C012303D
:1021600049F1133030F4112351F0113009F04AC015
:102170000BC0133089F1143009F044C03FC0809186
:10218000B3058093B2053EC01093B2051093B3051A
:102190001093B6061092BB06EEECF6E000830183C6
:1021A0000283038304830583369687E0E037F807CC
:1021B000A9F728C01093B2051093B305EEECF6E032
:1021C000008301830283038304830583369697E0AB
:1021D000E037F907A9F716C01093B2051093B305BD
:1021E000EEECF6E00083018302830383048305831E
:1021F000369687E0E037F807A9F704C0F092C706E3
:102200001093B2058091B205863009F485CFEBC0FA
:10221000843009F0E8C087E065E046E021E00E94F4
:10222000070810E0FF24F3940FEFD8C08091C70691
:10223000882331F01092C7060E9413068823E1F725
:102240000E941306833081F4153010F010E001C0B5
:102250001F5F212F2F5F87E065E046E00E9407089F
:102260000E9413068330E1F30E941306823009F0C6
:10227000B5C0123009F441C0133030F41123C1F15C
:10228000113009F0ABC00AC0143009F494C0143006
:1022900008F465C0153009F0A1C09EC08BEA97E034
:1022A00060E070E04091B3050E942A1A8BEA97E043
:1022B00061E070E04091B2060E942A1A8BEA97E032
:1022C00066E070E04091B5050E942A1A86E06CE055
:1022D0004AE255E00E941B0768EE73E080E090E060
:1022E0000E94C11B86E06CE048E555E00E941B0798
:1022F0008091B3058093B20571C08091C806882390
:1023000039F4F092C80681E167E04CE652E006C07D
:102310001092C80681E167E045E652E00E941B0783
:102320008BEA97E067E070E04091C8060E942A1AA5
:102330008BE06CE04AE655E00E941B0768EE73E014
:1023400080E090E00E94C11B8BE06CE04BE755E021
:102350000E941B070E9413068230E1F33FC0809168
:10236000B505882339F4F092B50581E168E04CE8C1
:1023700055E006C01092B50581E168E043E955E0FB
:102380000E941B078BEA97E066E070E04091B5057C
:102390000E942A1A84E06CE04AE955E00E941B077B
:1023A00068EE73E080E090E00E94C11B0E9413067B
:1023B0008230E1F313C085E08093B205EEECF6E0E5
:1023C000008301830283038304830583369697E0A9
:1023D000E037F907A9F702C00E9451078091B205C2
:1023E000843009F423CF9091B2068091B506891705
:1023F00089F0892F0E94B40C8091B2068093B506B3
:102400000E94B31B6093B7067093B8068093B90619
:102410009093BA068091B80581508093B8058F5F7C
:1024200059F484E18093B80587E162E00E942B0BA8
:1024300003C01092B406DBCBDF91CF911F910F91B7
:10244000FF90EF90DF90CF9008950F931F93CF935D
:10245000DF9381E08093600680939706809348061F
:102460008093640680936506809382068093690654
:1024700080935206809370068093A7068093590636
:1024800080937506809392068093770680939506D5
:1024900080935F0680E090E0FC01E35EF94F80836B
:1024A000019688329105C1F7C0E0D0E025C00C91BB
:1024B000E02FF0E0EE0FFF1FE057FF4F2591349122
:1024C0006F5F7F4F11961C911197E12FF0E0EE0F97
:1024D000FF1FE057FF4F859194918217930720F4D7
:1024E0001C9311960C931197119646175707FCF6FB
:1024F0002196C732D10551F0ADE1B6E060E070E061
:10250000AE0140955095495D5F4FEFCF8BEA97E064
:1025100060E070E00E94231A8F3FD1F58BEA97E0CC
:1025200060E070E041E00E942A1A8BEA97E061E0E7
:1025300070E040E00E942A1A8BEA97E062E070E0C7
:102540004AE50E942A1A8BEA97E063E070E040E0D7
:102550000E942A1A8BEA97E064E070E04CE20E9445
:102560002A1A8BEA97E065E070E041E00E942A1A9F
:102570008BEA97E066E070E04091B5050E942A1A68
:102580008BEA97E067E070E04091C8060E942A1A43
:102590008BEA97E060E070E00E94231A8093B20516
:1025A0008BEA97E061E070E00E94231A8093B20604
:1025B0008BEA97E063E070E00E94231A182F8BEA01
:1025C00097E062E070E00E94231A312F20E090E053
:1025D000282B392B3093BE062093BD068BEA97E05B
:1025E00065E070E00E94231A182F8BEA97E064E000
:1025F00070E00E94231A312F20E090E0282B392B25
:102600003093C0062093BF068BEA97E066E070E047
:102610000E94231A8093B5058BEA97E067E070E08B
:102620000E94231A8093C80681E08093BC060E9412
:10263000BF056091B5058BE096E070E00E94F60260
:102640008BE096E00E945B048BE096E068E20E94DB
:1026500095038BE096E069E10E94790385E061E0F3
:102660000E94811C85E061E00E94C01C85E061E061
:102670000E94811C8BE061E00E94811C8DE061E082
:102680000E94811CDF91CF911F910F9108951CBC76
:102690006C7263656CBD8DB58EB508956EBD0DB45D
:1026A00007FEFDCF8EB508958DE061E00E94811C8C
:1026B0008BE061E00E94811C8CE060E00E94811C44
:1026C0008AE061E00E94811C1CBC83E58CBD8DB555
:1026D0008EB5089589E997E00E94541308958FEF0D
:1026E0009FE70895DF93CF93CDB7DEB7FE0139960C
:1026F0008D819E8160E04F8158859F010E94021666
:10270000CF91DF9108950F931F93DC01ED91FC9120
:102710000288F389E02D20E030E000E010E0099528
:102720001F910F9108958F92AF92CF92EF92FF92E7
:102730000F931F93DF93CF93CDB7DEB7FC011382C6
:10274000128288EE93E0A0E0B0E084839583A683B4
:10275000B78387ED95E091838083558744873787DA
:102760002687118B008BF38AE28AC48AA58A868A1F
:1027700070E0CB0123E0880F991F2A95E1F79C01B7
:102780002656384F308F278B8E55984F928F818FDA
:1027900081E090E002C0880F991F6A95E2F72091CE
:1027A000AA07282B2093AA07CF0140E051EE60E052
:1027B00070E00E948313CF91DF911F910F91FF90E2
:1027C000EF90CF90AF908F900895FC01838D882378
:1027D00019F42FEF3FEF0DC00788F08DE02D208119
:1027E000318182819381281B390B84819581282333
:1027F0003923C9010895FC01838D882319F42FEF33
:102800003FEF11C0018CF28DE02D2081318182815A
:102810009381281B390B209530958481958128233D
:1028200039232F5F3F4FC9010895FC01838D882311
:1028300061F0A789B08D2D913C91119712968D91E1
:102840009C9113972817390721F44FEF5FEFCA01C6
:10285000089512968D919C9113971696ED91FC9187
:102860001797E80FF91F408112968D919C9113974D
:10287000019614962D913C911597822393231396DC
:102880009C938E93129750E0E2CFFC01838D8823B6
:1028900051F00788F08DE02D208131818281938174
:1028A0002817390721F42FEF3FEFC90108958281DE
:1028B00093810680F781E02DE80FF91F8081282F92
:1028C00030E0F3CFDC015796ED91FC91589782816F
:1028D0009381918380835996ED91FC915A978081E1
:1028E0009181938382830895DC015B968C915B9741
:1028F0008823A9F15996ED91FC915A972081318155
:102900002F5F3F4F84819581282339235C968C91DA
:102910005C97882329F08281938128173907F9F081
:102920008281938128173907D9F3808191810680AC
:10293000F781E02DE80FF91F60835996ED91FC9126
:102940005A97318320835296ED91FC915397808161
:1029500056969C91892B808321E030E002C020E0D4
:1029600030E0C9010895CF93DF93EC011B821A82F6
:102970008A819B81998388831D821C828E819F819D
:10298000009721F00E94D31A1F821E82DF91CF91FF
:1029900008950F931F938C01DC015296ED91FC91E9
:1029A0005397208156968C91569755969C915597A2
:1029B000892B80958223808357968D919C9158977F
:1029C0000E94B314F801818D928D0E94B314D80136
:1029D0005B961C921F910F9108950F931F93CF93B5
:1029E000DF938C01FC011382128282819381918397
:1029F000808341E0A1E0B0E001C04F5FFD01042E03
:102A000002C0EE0FFF1F0A94E2F79B0182E06130E3
:102A1000780710F020E032E0E217F30770F3C1E02E
:102A2000D0E002C0CC0FDD1F4A95E2F72197F801F4
:102A3000268137812115310541F0848195818C17DC
:102A40009D0789F0C9010E94D31AF801D583C48378
:102A5000CE0101960E94361A9C01F8019783868365
:102A600080E0232B09F081E0DF91CF911F910F913E
:102A70000895AF92BF92CF92DF92EF92FF920F93A1
:102A80001F93CF93DF937C015A016B01E901DC01B5
:102A90005B968C915B978823F1F02115310539F411
:102AA0005796ED91FC915897C481D58121960115D7
:102AB000110549F4D7015996ED91FC915A9704817B
:102AC00015810F5F1F4FD701ED91FC910088F189AF
:102AD000E02DC7010995F7018789908D209711F4A2
:102AE000C0E8D0E0BE010E94ED14882381F0D70138
:102AF00059968D919C915A970115110511F400E199
:102B000010E0B8010E94ED14882309F04DC0D701F0
:102B1000ED91FC910088F189E02DC701099567C00E
:102B2000D7015096ED91FC915197B0E0AB16B1EE04
:102B3000BB06B0E0CB06B0E0DB0609F454C081E090
:102B400090E0D70154960C9002C0880F991F0A9408
:102B5000E2F7808360E079E08DE390E0A6019501E3
:102B60000E9448202150304040405040CA01B901E5
:102B700022E030E040E050E00E944820D7011C965F
:102B8000ED91FC911D9730831E96ED91FC911F975E
:102B90002083D7015296ED91FC91539780815596F1
:102BA0009C91892B808323C0D7015996ED91FC918C
:102BB0005A971382128282819381918380835796E0
:102BC000ED91FC91589713821282828193819183B7
:102BD000808381E05B968C931A141B041C041D04F3
:102BE0000CF49ECFD6CF108220E130E0C7CFDF912A
:102BF000CF911F910F91FF90EF90DF90CF90BF90FA
:102C0000AF9008952F923F924F925F926F927F9272
:102C10008F929F92AF92BF92CF92DF92EF92FF92EC
:102C20000F931F93DF93CF93CDB7DEB764970FB6A3
:102C3000F894DEBF0FBECDBF3C01688B5A8B498B29
:102C400069011C01AE014F5F5F4F5C8B4B8BE989C3
:102C5000FA89488940FD659140FF6191FA8BE98BC3
:102C6000662309F4D7C3653249F440FD859140FFDE
:102C70008191FA8BE98B8532B1F40CC06A3051F442
:102C8000D301ED91FC910190F081E02DC1016DE047
:102C900009956AE0D301ED91FC910190F081E02D5E
:102CA000C1010995D4CF982F10E0882499241032BF
:102CB000B0F49B3269F09C3228F4903251F0933298
:102CC00071F40BC09D3239F0903349F4116028C083
:102CD0001260146025C0186023C0106121C017FD68
:102CE0002BC0892F80538A3078F416FF06C0BAE0D3
:102CF0009B9E902C1124980E13C0EAE08E9E802C8F
:102D00001124880E10620CC09E3221F416FD82C37D
:102D1000106406C09C3611F4106802C0983661F445
:102D2000E989FA89488940FD959140FF9191FA8B94
:102D3000E98B992309F0BBCF892F8554833020F488
:102D4000812F8061905E07C0892F8556833008F0FF
:102D5000E6C1812F8F7E86FD02C076E0972E6FE35D
:102D6000F62EF822953619F450E4F52A07C0963667
:102D700019F480E8F82A02C091109A94F7FE0BC06B
:102D80009BE3991520F427E05CE3B52E0DC0B92C28
:102D9000B39427E009C0A7E0A91520F447E0942EDA
:102DA00027E001C0292DBB24F6013496FD87EC876E
:102DB000D6016D917D918D919C91AE014F5F5F4FDA
:102DC0000B2D0E949A016C010981E02FF0E0FF8732
:102DD000EE8700FF05C0FE85F3FD02C01DE209C0BD
:102DE000F1FE02C01BE205C0F2FC02C010E001C00F
:102DF00010E28E859F858C709070892B09F444C0F9
:102E0000112311F483E001C084E0881510F08824B8
:102E10000EC0881AF3FC0BC0D301ED91FC91019018
:102E2000F081E02DC10160E209958A94A9F7112390
:102E300049F0D301ED91FC910190F081E02DC101A9
:102E4000612F0995BE85B3FF03C00AE712E012C0E7
:102E50000EE712E00FC0E114F10409F06052D30153
:102E6000ED91FC910190F081E02DC10109950F5F7A
:102E70001F4F05C0EF2CFF24B0E1EB22FF24F80127
:102E80006491662341F748C1F7FE13C0BC0CFE8570
:102E9000F4FF04C08A81813309F4BA941B141CF036
:102EA000BB24B3942DC048E04B1550F538E0B32E49
:102EB00027C0F6FC25C0892D90E08C159D054CF0AF
:102EC0005CEFC5165FEFD50624F080E8F82A01C054
:102ED0009A94992049F0E2E0F0E0EC0FFD1FE90D33
:102EE000F11D80818033A1F3F7FE0AC0B92CB394A1
:102EF000892D90E0C816D90614F0992401C09C18B9
:102F0000F7FC03C025E030E009C01C141D041CF0D0
:102F100021E030E003C096012F5F3F4F112311F0F5
:102F20002F5F3F4F992029F0892D90E00196280FBF
:102F3000391F882D90E02817390714F0882401C024
:102F4000821A4F2C5524C20189709070892B59F038
:102F50000CC0D301ED91FC910190F081E02DC101F5
:102F600060E209958A948820A1F7112349F0D301E2
:102F7000ED91FC910190F081E02DC101612F099547
:102F800043FE0BC00CC0D301ED91FC910190F08188
:102F9000E02DC10160E309958A948820A1F7F7FE2E
:102FA00051C08601D7FE02C000E010E0760108940F
:102FB000E11CF11CE01AF10AE1E0F0E0EC0FFD1F6A
:102FC000EE0EFF1E26014B185108892D90E0AA2411
:102FD000BB24A81AB90AFFEF0F3F1F0749F4D3011A
:102FE000ED91FC910190F081E02DC1016EE2099517
:102FF000C016D10634F0401651061CF4F70160816A
:1030000001C060E3015010400894E11CF11C0A1556
:103010001B054CF0D301ED91FC910190F081E02D66
:10302000C1010995D8CF0C151D0541F48A8186335D
:1030300020F4853319F4BE85B4FF61E3D301ED912B
:10304000FC9165C06A81613309F00F7ED301ED9177
:10305000FC910190F081E02DC10109959920E1F0EA
:10306000D301ED91FC910190F081E02DC1016EE260
:10307000099512E0E1E0F0E0EC0FFD1FE10FF11D1A
:1030800060811F5FD301ED91FC910190F081E02DF3
:10309000C10109959A9471F7D301ED91FC910190CA
:1030A000F081E02D44FC02C065E601C065E4C10189
:1030B0000995D7FC05C0C114D10441F404FF06C032
:1030C000D094C194D108D3946DE201C06BE2D301D6
:1030D000ED91FC910190F081E02DC101099560E333
:1030E00005C06F5FE6EFFFEFCE0EDF1EFAE0CF16F2
:1030F000D104BCF7D301ED91FC910190F081E02D5A
:10310000C1010995D301ED91FC916C2D605D019099
:10311000F081E02DC1010995CC84DD8478C193361E
:1031200031F0933799F0933509F061C023C0F6016F
:10313000808189835E010894A11CB11C42E050E0AB
:10314000C40ED51E21E0E22EF12C12C0D601AD90A6
:10315000BC9016FD03C06FEF7FEF02C0692D70E0D9
:10316000E2E0F0E0CE0EDF1EC5010E94DB027C0132
:103170001F7713C0D601AD90BC9016FD03C06FEF52
:103180007FEF02C0692D70E0E2E0F0E0CE0EDF1EBE
:10319000C5010E94D0027C01106813FF0BC023C040
:1031A000D301ED91FC910190F081E02DC10160E22D
:1031B00009958A94882D90E0E816F90688F313C0E3
:1031C000F50117FD659117FF61915F01D301ED9145
:1031D000FC910190F081E02DC101099581108A9444
:1031E0000894E108F108E114F10451F710C1943694
:1031F00011F0993699F517FF0AC0F6012081318147
:103200004281538184E090E0C80ED91E0CC0D601E3
:103210008D919C919C01442737FD4095542FE2E00D
:10322000F0E0CE0EDF1E9FE6F92EF12257FF09C017
:1032300050954095309521953F4F4F4F5F4FF0E8A7
:10324000FF2ACA01B901AE014F5F5F4F2AE030E0AB
:103250000E947202E82E4B89E41A41C0953721F48E
:103260001F7E2AE030E01CC0197F9F3661F0903746
:1032700020F4983509F0CEC00FC0903739F0983758
:1032800009F0C8C004C028E030E00AC0106114FD95
:10329000146020E130E004C014FD166020E132E04B
:1032A00017FF08C0D6016D917D918D919C91E4E04E
:1032B000F0E008C0D6018D919C91BC0180E090E0C7
:1032C000E2E0F0E0CE0EDF1EAE014F5F5F4F0E94E6
:1032D0007202E82EFB89EF1A8FE7F82EF122F6FE34
:1032E0000BC04EEFF422E91438F4F4FE07C0F2FCF0
:1032F00005C05FEEF52202C01E2D01C0192DF4FE9F
:103300000DC0FE01EE0DF11D8081803319F489EEB0
:10331000F82208C01F5FF2FE05C003C08F2D86781B
:1033200009F01F5F0F2DF3FC18C0F0FE13C0181535
:1033300010F09E2C0FC09E2C980C911A182D0AC0CC
:10334000D301ED91FC910190F081E02DC10160E28B
:1033500009951F5F1815A0F304C0181510F4811A01
:1033600001C0882404FF17C0D301ED91FC910190A6
:10337000F081E02DC10160E3099502FF29C0D3016E
:10338000ED91FC910190F081E02D01FD02C068E714
:1033900012C068E510C0802F8678D1F001FF02C00E
:1033A0006BE201C060E2F7FC6DE2D301ED91FC91AC
:1033B0000190F081E02DC10109950AC0D301ED9182
:1033C000FC910190F081E02DC10160E309959A9490
:1033D000E914A0F3EA94D301ED91FC91A1E0B0E0EF
:1033E000AC0FBD1FAE0DB11D0190F081E02DC101EC
:1033F0006C910995EE2071F70AC0D301ED91FC9113
:103400000190F081E02DC10160E209958A94882045
:10341000A1F71DCC64960FB6F894DEBF0FBECDBFEA
:10342000CF91DF911F910F91FF90EF90DF90CF90A0
:10343000BF90AF909F908F907F906F905F904F90D4
:103440003F902F900895F999FECF72BD61BDF89A13
:1034500080B50895F999FECF1FBA72BD61BD40BD18
:103460000FB6F894FA9AF99A0FBE08950F931F9326
:10347000CF93DF93BC018230910510F462E070E0DD
:10348000E091B707F091B80740E050E0A0E0B0E06D
:1034900024C08081918186179707D0F086179707FF
:1034A00071F482819381109729F013969C938E93E7
:1034B00012972CC09093B8078093B70727C0411587
:1034C000510519F08417950718F48D01AC01EF012F
:1034D000DF01828193819C01F9013097D1F641157A
:1034E0005105F9F0CA01861B970B8430910580F4D1
:1034F0008A819B810115110521F0F8019383828354
:1035000004C09093B8078093B707FE01329645C078
:10351000FE01E80FF91F61937193029799838883E5
:103520003CC08091B5079091B607892B41F48091FA
:10353000BC059091BD059093B6078093B507409167
:10354000BE055091BF054115510541F44DB75EB719
:103550008091BA059091BB05481B590B2091B50786
:103560003091B60724173507B0F4CA01821B930BBC
:103570008617970780F0AB014E5F5F4F8417950762
:1035800050F0420F531F5093B6074093B507F9010F
:103590006193719302C0E0E0F0E0CF01DF91CF9141
:1035A0001F910F910895CF93DF939C01009709F429
:1035B0008FC0EC0122971B821A826091B70770912D
:1035C000B8076115710581F488819981820F931F75
:1035D0002091B5073091B6072817390739F5D093F0
:1035E000B607C093B50774C0DB0140E050E0AC17EC
:1035F000BD0708F1BB83AA83FE0121913191E20F3F
:10360000F31FAE17BF0779F48D919C911197280F86
:10361000391F2E5F3F4F3983288312968D919C91DD
:1036200013979B838A834115510571F4D093B80792
:10363000C093B7074DC012968D919C911397AD0121
:10364000009711F0DC01D3CFDA011396DC93CE930F
:103650001297FA0121913191E20FF31FCE17DF0784
:1036600069F488819981280F391F2E5F3F4FFA0135
:10367000318320838A819B8193838283E0E0F0E021
:10368000DB0112968D919C911397009719F0BC0164
:10369000FD01F6CFAB014E5F5F4FDB018D919C9139
:1036A000840F951F2091B5073091B6072817390769
:1036B00079F4309729F41092B8071092B70702C036
:1036C00013821282425050405093B6074093B50780
:1036D000DF91CF9108951F920F920FB60F92112490
:1036E0002F933F938F939F93AF93BF938091B00796
:1036F0009091B107A091B207B091B3073091B40790
:103700000196A11DB11D232F2D5F2D3720F02D57C0
:103710000196A11DB11D2093B4078093B00790932B
:10372000B107A093B207B093B3078091AC07909113
:10373000AD07A091AE07B091AF070196A11DB11DD5
:103740008093AC079093AD07A093AE07B093AF07FB
:10375000BF91AF919F918F913F912F910F900FBE8D
:103760000F901F9018958FB7F8942091B007309163
:10377000B1074091B2075091B3078FBFB901CA0199
:1037800008959B01AC017FB7F8948091AC079091AC
:10379000AD07A091AE07B091AF0766B5A89B05C075
:1037A0006F3F19F00196A11DB11D7FBFBA2FA92F40
:1037B000982F8827860F911DA11DB11D62E0880FEB
:1037C000991FAA1FBB1F6A95D1F7BC012DC0FFB777
:1037D000F8948091AC079091AD07A091AE07B0919D
:1037E000AF07E6B5A89B05C0EF3F19F00196A11DF4
:1037F000B11DFFBFBA2FA92F982F88278E0F911DBB
:10380000A11DB11DE2E0880F991FAA1FBB1FEA95F9
:10381000D1F7861B970B885E9340C8F22150304049
:103820004040504068517C4F2115310541055105FC
:1038300071F60895019739F0880F991F880F991F25
:1038400002970197F1F70895789484B5826084BD5A
:1038500084B5816084BD85B5826085BD85B5816094
:1038600085BDEEE6F0E0808181608083E1E8F0E0F4
:103870001082808182608083808181608083E0E823
:10388000F0E0808181608083E1EBF0E08081846002
:103890008083E0EBF0E0808181608083EAE7F0E004
:1038A0008081846080838081826080838081816068
:1038B00080838081806880831092C1000895982F52
:1038C0008E3008F09E5097708091C0058295880FC9
:1038D000880F807C892B80937C0080917A008064A3
:1038E00080937A0080917A0086FDFCCF2091780049
:1038F00040917900942F80E030E0282B392BC901CA
:103900000895CF93DF93482F50E0CA018C549D4F08
:10391000FC01349140565D4FFA018491882369F18E
:1039200090E0880F991FFC01EE57FD4FA591B491CF
:10393000FC01E457FD4FC591D491662351F42FB794
:10394000F8948C91932F909589238C938881892367
:103950000BC0623061F42FB7F8948C91932F90953F
:1039600089238C938881832B88832FBF06C09FB7C0
:10397000F8948C91832B8C939FBFDF91CF91089506
:10398000482F50E0CA0188539D4FFC012491CA0181
:103990008C549D4FFC01949140565D4FFA01349137
:1039A000332309F440C0222351F1233071F0243035
:1039B00028F42130A1F0223011F514C02630B1F0E6
:1039C0002730C1F02430D9F404C0809180008F7773
:1039D00003C0809180008F7D8093800010C084B5EB
:1039E0008F7702C084B58F7D84BD09C08091B000FF
:1039F0008F7703C08091B0008F7D8093B000E32F5C
:103A0000F0E0EE0FFF1FE457FD4FA591B4912FB7E3
:103A1000F894662321F48C919095892302C08C91AF
:103A2000892B8C932FBF0895682F70E0CB018853AA
:103A30009D4FFC012491CB018C549D4FFC0144917E
:103A400060567D4FFB019491992319F420E030E0FA
:103A50003CC0222351F1233071F0243028F421306E
:103A6000A1F0223011F514C02630B1F02730C1F09A
:103A70002430D9F404C0809180008F7703C08091F6
:103A800080008F7D8093800010C084B58F7702C046
:103A900084B58F7D84BD09C08091B0008F7703C04D
:103AA0008091B0008F7D8093B000892F90E0880FC7
:103AB000991F8A569D4FFC01A591B4918C9120E0ED
:103AC00030E0842311F021E030E0C9010895CF9364
:103AD000DF930E94241C0E942512C0E0D0E00E94C7
:103AE0009D0D2097E1F30E940000F9CFCF92DF9265
:103AF000EF92FF920F931F93CF93DF937C016B01A3
:103B00008A01C0E0D0E00FC0D6016D916D01D701F0
:103B1000ED91FC910190F081E02DC7010995C80F4E
:103B2000D91F015010400115110571F7CE01DF9129
:103B3000CF911F910F91FF90EF90DF90CF9008955C
:103B4000EF92FF920F931F938C01DC01ED91FC919A
:103B50000190F081E02D6DE009957C01D801ED9197
:103B6000FC910190F081E02DC8016AE009959C016B
:103B70002E0D3F1DC9011F910F91FF90EF900895E9
:103B8000CF93DF93EC016115710519F420E030E06B
:103B90000FC0DB010D900020E9F71197A61BB70BB2
:103BA000E881F9810280F381E02DAD0109959C0146
:103BB000C901DF91CF9108954F925F927F928F92CA
:103BC0009F92AF92BF92CF92DF92EF92FF920F93AC
:103BD0001F93DF93CF93CDB7DEB7A1970FB6F894BD
:103BE000DEBF0FBECDBF2C01742ECB01223008F4F6
:103BF0002AE019A231E2C32ED12CCC0EDD1E822E7A
:103C00009924AA24BB24672D752FA50194010E9435
:103C1000262079018A01C801B701A50194010E94FB
:103C2000E01F472D461B0894C108D1084A3014F400
:103C3000405D01C0495CF6014083E114F1040105D7
:103C4000110521F07E2C5F2DC801DDCFC201B60128
:103C50000E94C01DA1960FB6F894DEBF0FBECDBF67
:103C6000CF91DF911F910F91FF90EF90DF90CF9058
:103C7000BF90AF909F908F907F905F904F900895EE
:103C8000CF92DF92EF92FF920F931F93CF93DF9328
:103C9000EC016A017B012115310541F4E881F981CC
:103CA0000190F081E02D642F09951FC02A30310565
:103CB000D1F477FF17C0E881F9810190F081E02D00
:103CC0006DE209958C0144275527BA014C195D090D
:103CD0006E097F09CE012AE00E94DC1D9801280FA1
:103CE000391F04C02AE00E94DC1D9C01C901DF913C
:103CF000CF911F910F91FF90EF90DF90CF9008959B
:103D0000EF92FF920F931F937B019A010027F7FC1C
:103D10000095102FB801A7010E94401E1F910F911E
:103D2000FF90EF900895EF92FF920F931F937C0105
:103D30000E94C01D8C01C7010E94A01D080F191F01
:103D4000C8011F910F91FF90EF9008952F923F921D
:103D50004F925F926F927F928F929F92AF92BF929B
:103D6000CF92DF92EF92FF920F931F93DF93CF9347
:103D7000CDB7DEB73B014C0119012A016D897E895F
:103D80008F89988D6A197B098C099D09621A730ABB
:103D9000840A950AA40193010E94E01FE218F30827
:103DA00004091509A80197010E9448202A0D3B1D0E
:103DB0004C1D5D1DB901CA01CF91DF911F910F917B
:103DC000FF90EF90DF90CF90BF90AF909F908F903B
:103DD0007F906F905F904F903F902F900895E89460
:103DE00009C097FB3EF490958095709561957F4F43
:103DF0008F4F9F4F9923A9F0F92F96E9BB279395F1
:103E0000F695879577956795B795F111F8CFFAF400
:103E1000BB0F11F460FF1BC06F5F7F4F8F4F9F4F31
:103E200016C0882311F096E911C0772321F09EE88F
:103E3000872F762F05C0662371F096E8862F70E0F5
:103E400060E02AF09A95660F771F881FDAF7880FCF
:103E50009695879597F9089597F99F6780E870E0A0
:103E600060E008959FEF80EC089500240A941616F0
:103E7000170618060906089500240A941216130658
:103E8000140605060895092E0394000C11F48823E6
:103E900052F0BB0F40F4BF2B11F460FF04C06F5F02
:103EA0007F4F8F4F9F4F089557FD9058440F551FD8
:103EB00059F05F3F71F04795880F97FB991F61F0AC
:103EC0009F3F79F087950895121613061406551F23
:103ED000F2CF4695F1DF08C0161617061806991F8F
:103EE000F1CF86957105610508940895E894BB2784
:103EF00066277727CB0197F908950BD0C4CFB5DF9C
:103F000028F0BADF18F0952309F0A6CFABCF112423
:103F1000EECFCADFA0F3959FD1F3950F50E0551F68
:103F2000629FF001729FBB27F00DB11D639FAA270E
:103F3000F00DB11DAA1F649F6627B00DA11D661F5D
:103F4000829F2227B00DA11D621F739FB00DA11D7E
:103F5000621F839FA00D611D221F749F3327A00D38
:103F6000611D231F849F600D211D822F762F6A2FD4
:103F700011249F5750408AF0E1F088234AF0EE0F59
:103F8000FF1FBB1F661F771F881F91505040A9F766
:103F90009E3F510570F060CFAACF5F3FECF3983E93
:103FA000DCF3869577956795B795F795E7959F5FCD
:103FB000C1F7FE2B880F911D9695879597F9089567
:103FC000629FD001739FF001829FE00DF11D649FFD
:103FD000E00DF11D929FF00D839FF00D749FF00D89
:103FE000659FF00D9927729FB00DE11DF91F639F2A
:103FF000B00DE11DF91FBD01CF0111240895AA1BC9
:10400000BB1B51E107C0AA1FBB1FA617B70710F0C3
:10401000A61BB70B881F991F5A95A9F780959095F5
:10402000BC01CD01089597FB092E07260AD077FD24
:1040300004D0E5DF06D000201AF4709561957F4F1B
:104040000895F6F7909581959F4F0895A1E21A2E55
:10405000AA1BBB1BFD010DC0AA1FBB1FEE1FFF1F2C
:10406000A217B307E407F50720F0A21BB30BE40B7C
:10407000F50B661F771F881F991F1A9469F76095C3
:104080007095809590959B01AC01BD01CF0108957D
:1040900097FB092E05260ED057FD04D0D7DF0AD096
:1040A000001C38F450954095309521953F4F4F4F67
:1040B0005F4F0895F6F790958095709561957F4FC5
:1040C0008F4F9F4F0895EE0FFF1F0590F491E02D45
:0640D0000994F894FFCFF3
:1040D6002573203A30782578202020002573203A51
:1040E60025692020200025630025640025730057DC
:1040F600616974696E6720666F72204368617261D8
:104106006374657220557064617465002020526581
:10411600626F6F7420746F20736B697020757064A2
:104126006174650000526561647920666F7220468D
:104136006F6E742075706C6F6164002063686172C5
:104146007320646F6E6500466F6E742075706461CF
:10415600746520646F6E652C20706C6561736520D4
:104166007265626F6F742E008000202000030101CB
:104176000101010101010101010101010101010426
:104186000002202020202020205345545550202076
:1041960020202002000701010101010101010101A6
:1041A600010101010101010800022020455849547E
:1041B6002020202020202020202020020002202055
:1041C600534156452053455454494E4753202002E7
:1041D600000220204D414E55414C3A2020202020FF
:1041E6002020200200022020564944454F203A2034
:1041F6002020202020202002000220205253534954
:104206002043414C4942524154452002000220209D
:10421600464F4E542055504C4F41442020202002FA
:104226000005010101010101010101010101010175
:1042360001010106004C494E4541520042414E449F
:104246002020004E5453430050414C2000030101EE
:104256000101010101010101010101010101040046
:1042660002204D4F44452053454C454354494F4E3B
:104276002002000701010101010101010101010103
:104286000101010108000220204558495420202040
:104296002020202020202002000220204155544FBB
:1042A600205345415243482020200200022020424C
:1042B600414E44205343414E4E45522020020002B7
:1042C60020204D414E55454C204D4F444520202041
:1042D6000200022020534554555020202020202043
:1042E6002020200200050101010101010101010157
:1042F600010101010101060002204348414E3A2016
:104306003F202010201120122013201420152016E3
:1043160020170200202020202020202020202020DE
:104326002020202020202020202020202020202087
:104336002020002020202020202020202020202097
:104346002020202020202020202020202020002582
:104356006325322E316600030101010101010101CD
:104366000101010101010101010101010101010137
:1043760001040002202020202042414E44205343C5
:10438600414E4E4552202020D020302E30020005CE
:104396000101010101010101010101010101010107
:1043A6000101010101010101010600022020525311
:1043B60053492043414C4942524154494F4E2020D3
:1043C600202020202002000252756E3A3F3F204DE9
:1043D600494E3A3F3F3F2020204D41583A3F3F3F0C
:1043E600200200090D0E0E0E0E0E0E0E0E0E0E0EF5
:1043F6000A0C0E0E0E0E0E0E0E0E0E0E0B0D0053AA
:1044060063616E6E696E672E2E000220204D414E4E
:1044160055414C2042414E44204D4F4445202020DA
:104426002020202002000220204D414E55414C20E4
:104436004C494E454152204D4F44452020202020D6
:1044460002000220204155544F204D4F4445205331
:1044560045454B2020202020202020200200070157
:104466000101010101010101010101010101010136
:1044760001010101010101010800022046524551D6
:104486003A203F3F3F3F2047487A202020202020E7
:104496002020202002000220525353493A83888864
:1044A6008888888888888888888888888888888985
:1044B60002000220204155544F204D4F4445204CC8
:1044C6004F434B000220204155544F204D4F444549
:1044D600205345454B00484F4C442042414E442012
:1044E6005343414E4E455200202020202042414E4B
:1044F60044205343414E4E4552002053657474691F
:104506006E67732073617665642E2E000252756E97
:104516003A2020204D494E3A2020202020204D418F
:10452600583A202020200200202020202020202071
:104536002020202020202020200053617665642E34
:104546002020202020202020202000202020202085
:1045560020202020202020202020200050414C20F8
:104566002A20004E545343202A002A2053617665A0
:10457600642C206E65656473207265737461727451
:10458600210001010201960014508000B9070000C5
:1045960001000000002704761D0D03100313031607
:1045A600036F13000000007414761DE513151445FF
:0C45B600146214FB138313C914391500A0
:00000001FF
