:100000000C9415040C943D040C943D040C943D0494
:100010000C943D040C943D040C943D040C943D045C
:100020000C943D040C943D040C943D040C943D044C
:100030000C943D040C943D040C943D040C943D043C
:100040000C94311F0C943D040C946C070C94A8077D
:100050000C943D040C943D040C943D040C943D041C
:100060000C943D040C943D04466F6E7420757064CE
:1000700061746520646F6E652E20526573746172C1
:1000800074696E672073797374656D2E2E0A0A0089
:100090000A546F20736B69702074686520757064F2
:1000A0006174652C206A7573742072657374617253
:1000B00074207468652073797374656D2E0A00531B
:1000C000797374656D2077696C6C207265626F6FEF
:1000D00074207768656E20616C6C20323535206342
:1000E00068617261637465727320617265207374F4
:1000F0006F7265642E0A00596F752077696C6C20E9
:100100006765742061206D65737361676520666F34
:1001100072206561636820636861726163746572EF
:100120002073746F7265642E0A000A0A5265616456
:100130007920666F7220666F6E742075706C6F61C7
:10014000642E20506C656173652073656E64202A8F
:100150002E6D636D2066696C652E0A0A0020534B74
:10016000495020555044415445204259205245534E
:1001700054415254494E470053595354454D20570A
:10018000494C4C205245424F4F54205748454E2031
:10019000444F4E4500202020333834303020424137
:1001A000554420564941205445524D4E414C002063
:1001B000504C4553452053454E44204348415241FD
:1001C00043544552532057495448005741495449D4
:1001D0004E4720464F5220434841524143544552D6
:1001E0002055504441544500090D0E0E0E0E0E0EC2
:1001F0000E0E0E0E0E0A0C0E0E0E0E0E0E0E0E0E25
:100200000E0B0D00050101010101010101010101B8
:1002100001010101010101010101010101010600CA
:100220000220525353493A8388888888888888886E
:1002300088888888888888888889020002204652B1
:1002400045513A203F3F3F3F2047487A2020202019
:1002500020202020202002000701010101010101CE
:10026000010101010101010101010101010101017E
:10027000010108000220204155544F204D4F4445B4
:10028000205345454B202020202020202020020004
:100290000220204D414E55414C204C494E45415283
:1002A000204D4F4445202020202002000220204DD8
:1002B000414E55414C2042414E44204D4F44452033
:1002C0002020202020200200030101010101010162
:1002D000010101010101010101010101010101010E
:1002E00001010400090D0E0E0E0E0E0E0E0E0E0E66
:1002F0000E0A0C0E0E0E0E0E0E0E0E0E0E0B0D0036
:1003000005010101010101010101010101010101D9
:100310000101010101010101010106000252756E96
:100320003A3F3F204D494E3A3F3F3F2020204D412C
:10033000583A3F3F3F2002000220205253534920A9
:1003400043414C4942524154494F4E2020202020E5
:10035000202002000501010101010101010101014B
:100360000101010101010101010101010101060079
:1003700002202020202042414E44205343414E4E33
:100380004552202020D020302E30020003010101F0
:10039000010101010101010101010101010101014D
:1003A0000101010101010400050101010101010137
:1003B00001010101010101010101060002202046A5
:1003C0004F4E542055504C4F4144202020200200D5
:1003D000022020525353492043414C494252415438
:1003E00045200200022020564944454F203A202053
:1003F00020202020202002000220204D414E554187
:100400004C3A2020202020202020020002202053CF
:100410004156452053455454494E4753202002002D
:100420000220204558495420202020202020202030
:100430002020020007010101010101010101010168
:1004400001010101010108000220202020202020BC
:100450005345545550202020202002000301010163
:10046000010101010101010101010101010104007A
:100470000501010101010101010101010101010168
:1004800001060002202053455455502020202020F2
:100490002020202002000220204D414E55454C20B6
:1004A0004D4F4445202020020002202042414E446E
:1004B000205343414E4E455220200200022020414D
:1004C00055544F20534541524348202020020002FA
:1004D0002020455849542020202020202020202062
:1004E00002000701010101010101010101010101F6
:1004F000010101080002204D4F44452053454C4561
:100500004354494F4E200200030101010101010142
:1005100001010101010101010104000501010101C5
:100520000101010101010101010101010600022097
:10053000204D41524B4F20484F45504B454E2002D5
:1005400000022020202056312E312E332020202062
:10055000202002000220202032322E31312E323073
:1005600031352020200200070101010101010101B4
:100570000101010101010101080002205258353832
:1005800030382050524F204F5344200200030101C5
:100590000101010101010101010101010101040049
:1005A0004141414141414141424242424242424233
:1005B00045454545454545454646464646464646E3
:1005C0005252525252525252E916D516C116AD1617
:1005D0009916851671165D16651678168B169E1679
:1005E000B116C416D716EA164916351621160D1679
:1005F000FD161117251739176C1680169416A816B4
:10060000BC16D016E416F8161A163F16641689168C
:10061000AE16D316F8161D170000000000000000EB
:1006200001010101010101010202020202020202B2
:100630000303030303030303040404040404040482
:10064000A0A1A2A3A4A5A6A7A8A9AAABACADAEAF32
:10065000B0B1B2B3B4B5B6B7B8B9BABBBCBDBEBF22
:10066000C0C1C2C3C4C5C6C7052A9B299129872911
:100670001D29132909299F2803290C2916291F2917
:10068000892992299C29052A95288B2881281728B1
:100690000F2A192A832A8D2A062910291A29842922
:1006A0008E299829022A0C2A1D289028022915290A
:1006B00087299A290C2A1F2A5258353830384F5327
:1006C00044524556312E312E3200407A10F35A00F2
:1006D000A0724E18090010A5D4E80000E87648176B
:1006E0000000E40B54020000CA9A3B000000E1F550
:1006F00005000080969800000040420F000000A016
:100700008601000000102700000000E80300000040
:10071000006400000000000A00000000000100006A
:100720000000002C76D888DC674F0823DFC1DFAEDD
:1007300059E1B1B796E5E3E453C63AE651997696A6
:10074000E8E6C28426EB898C9B62ED407C6FFCEF6F
:10075000BC9C9F40F2BAA56FA5F490055A2AF75C9D
:10076000936B6CF9676DC11BFCE0E40D47FEF5204F
:10077000E6B500D0ED902E03009435770500808417
:100780001E080000204E0A000000C80C333333332B
:100790000F986E12831141EF8D2114893BE6551697
:1007A000CFFEE6DB18D1844B381BF77C1D901DA4CF
:1007B000BBE424203284725E228100C9F124ECA1C2
:1007C000E53D276E616E00696E6600000000002442
:1007D0000027002A0000000000250028002B000050
:1007E000000000230026002900040404040404047B
:1007F00004020202020202030303030303010204D0
:100800000810204080010204081020010204081092
:1008100020000000070002010000030406000000A1
:1008200000000000000044081F1711241FBECFEF76
:10083000D8E0DEBFCDBF12E0A0E0B1E0E2E6F8E430
:1008400002C005900D92A23CB107D9F714E0A2ECCA
:10085000B2E001C01D92AF38B107E1F718E0CAE27B
:10086000D8E004C02297FE010E942B24C632D10793
:10087000C9F70E942D210C942F240C9400002830DD
:1008800008F027E03327DA01990F311D87FD9160C9
:1008900000966105710539F432602E5F3D9330E3B7
:1008A0002A95E1F708959F3F30F080387105610582
:1008B00009F03C5F3C5F3D93913008F08068911DEA
:1008C000DF93CF931F930F93FF92EF92192F987F8F
:1008D0009695E92F96959695E90FFF27ED5DF84FD0
:1008E00099273327EE24FF24A701E70105900894F8
:1008F000079428F4360FE71EF81E491F511D660F96
:10090000771F881F991F0694A1F70590079428F474
:10091000E70EF81E491F561FC11D770F881F991F2C
:10092000661F0694A1F70590079428F4F80E491F56
:10093000561FC71FD11D880F991F661F771F06946A
:10094000A1F70590079420F4490F561FC71FD81F21
:10095000990F661F771F881F0694A9F78491109539
:10096000177041F0D695C79557954795F794E7943A
:100970001A95C1F7E9ECF6E0689415901591359158
:100980006591959105907FE27395E118F10A430B0B
:10099000560BC90BD009C0F7E10CF11E431F561FBF
:1009A000C91FD01D7EF4703311F48A95E6CFE89408
:1009B000015030F0080F0AF40027021708F4202F26
:1009C0002395022F7A3328F079E37D932A95E9F76E
:1009D00010C07D932A9589F606949795679537956B
:1009E00017951794E118F10A430B560BC90BD00960
:1009F00098F023957E9173957A3308F070E37C9399
:100A00002013B8F77E9170617D9330F0839571E388
:100A10007D9370E32A95E1F71124EF90FF900F91F9
:100A20001F91CF91DF91992787FD90950895FA0145
:100A3000AA27283051F1203181F1E8946F936E7F1D
:100A40006E5F7F4F8F4F9F4FAF4FB1E03ED0B4E00E
:100A50003CD0670F781F891F9A1FA11D680F791F4F
:100A60008A1F911DA11D6A0F711D811D911DA11D60
:100A700020D009F468943F912AE0269F1124301970
:100A8000305D3193DEF6CF010895462F4770405D0B
:100A90004193B3E00FD0C9F7F6CF462F4F70405DBA
:100AA0004A3318F0495D31FD4052419302D0A9F715
:100AB000EACFB4E0A6959795879577956795BA950F
:100AC000C9F700976105710508959B01AC010A2ED5
:100AD00006945795479537952795BA95C9F7620FAC
:100AE000731F841F951FA01D0895FB01DC01059055
:100AF0000D920020E1F70895FC01059061507040CF
:100B00000110D8F7809590958E0F9F1F0895FC01D6
:100B10006150704001900110D8F7809590958E0F2C
:100B20009F1F0895FC011382128288EE93E0A0E0DB
:100B3000B0E084839583A683B7838BE992E09183A9
:100B400080830895FC016115710521F06130710504
:100B500049F404C0108A86E0818B089580E4808B7C
:100B600088E0818B0895FC01648745876687478705
:100B7000089580E090E0089580E090E0089580E09E
:100B800090E008950895EF92FF921F93CF93DF9323
:100B9000162F7A0186E060E00E9486208FE694E0BE
:100BA00060E00E9403178FE694E060E00E94031764
:100BB0008FE694E069E00E9403178FE694E0612FCE
:100BC0000E940317C0E0D0E0F701EC0FFD1F108179
:100BD0008FE694E06AE00E9403178FE694E06C2FA2
:100BE0000E9403178FE694E06BE00E9403178FE6E4
:100BF00094E0612F0E9403172196C633D10521F797
:100C00008FE694E068E00E9403178FE694E060EAC4
:100C10000E9403178FE694E060EA0E94031785FDA7
:100C2000F9CF8FE694E060E00E9403178FE694E02E
:100C30006CE00E94031786E061E00E948620DF914D
:100C4000CF911F91FF90EF900895FF920F931F9304
:100C5000F62E86E060E00E9486200FE614E0C801D0
:100C600063E00E9403178FE1F822C8016F2D0E94F4
:100C7000031786E061E00E9486201F910F91FF908C
:100C80000895FF920F931F93F62E86E060E00E9476
:100C900086200FE614E0C80162E00E9403178FE38C
:100CA000F822C8016F2D0E94031786E061E00E94C0
:100CB00086201F910F91FF9008951F93CF93DF938C
:100CC000EC01162F86E060E00E9486208FE694E01B
:100CD00060E00E940317113049F0113018F0123013
:100CE00071F407C08FE694E0688907C068896C6179
:100CF00002C068896C638FE694E00E94031786E067
:100D000061E00E948620DF91CF911F910895EF92BC
:100D1000FF920F931F937C010FE614E0C80167E078
:100D20000E940317C8016FEF0E94031786E061E07D
:100D30000E948620F70187858F5F87871F910F911B
:100D4000FF90EF900895EF92FF920F931F93FC0195
:100D5000E7848EE1E89E700111248685E80EF11C7F
:100D600086E060E00E9486200FE614E0C80164E09F
:100D70000E940317C80163E00E940317C80165E0E1
:100D80000E940317C8016F2D0E940317C80166E077
:100D90000E940317C8016E2D0E9403171F910F9127
:100DA000FF90EF9008951F93CF93DF93EC01162FE0
:100DB0006C3731F40E948706CE010E94A3060AC058
:100DC0008FE694E067E00E9403178FE694E0612FBE
:100DD0000E94031781E090E0DF91CF911F91089569
:100DE0000F931F9386E060E00E9486200FE614E0D8
:100DF000C80164E00E940317C80164E00E94031761
:100E000086E061E00E9486201F910F9108951F9354
:100E1000CF93DF93EC0186E061E00E94472082E0FF
:100E200060E00E94472082E061E00E94862086E028
:100E300060E00E9486208FE694E06CEE0E9403172B
:100E40008FE694E06FEF0E940317182F8FE694E06F
:100E500060E00E940317688962608FE694E00E9458
:100E6000031762E370E080E090E00E94871F8FE646
:100E700094E06CE60E9403171F7E8FE694E0612FDA
:100E80000E9403171092C3021092C20217C0609111
:100E9000C2027091C302605F8FE694E00E94031764
:100EA0008FE694E060E00E9403178091C202909167
:100EB000C30201969093C3028093C2028091C20242
:100EC0009091C3020C971CF3CE0161E00E945D0675
:100ED000DF91CF911F9108951F920F920FB60F923D
:100EE00011242F933F934F938F939F93EF93FF93EF
:100EF0004091C60020917004309171042F5F3F4FE4
:100F00008091740490917504282339238091720490
:100F1000909173042817390779F0809170049091AB
:100F20007104E0917604F0917704E80FF91F408393
:100F30003093710420937004FF91EF919F918F91F2
:100F40004F913F912F910F900FBE0F901F901895CA
:100F50001F920F920FB60F9211242F933F938F93EE
:100F60009F93EF93FF9320917A0430917B048091BB
:100F700078049091790428173907E9F080917A0470
:100F800090917B04E0917E04F0917F04E80FF91FBB
:100F900080818093C60080917A0490917B040196B1
:100FA00020917C0430917D048223932390937B04D1
:100FB00080937A0410C02091780430917904809154
:100FC0007A0490917B042817390729F48091C10095
:100FD0008F7D8093C100FF91EF919F918F913F9101
:100FE0002F910F900FBE0F901F901895833109F429
:100FF00043C0843180F48330E9F1843028F48130B7
:1010000049F1823078F520C0813131F1823160F5CB
:101010008031C1F517C0833289F1843238F48132CE
:10102000E9F0823218F5803269F510C08133C1F0E1
:10103000823318F4803331F50BC08233C9F0833327
:1010400009F51EC081E9089580E9089582E90895AF
:1010500083E9089584E9089585E9089586E9089566
:1010600087E9089588E9089589E908958AE9089546
:101070008BE908958CE908958DE908958EE9089526
:101080008FE908958EE808958F92AF92CF92EF92F4
:10109000FF920F931F9384EC92E060E045EC50E0E8
:1010A00024EC30E000EC10E0F1ECEF2EF12CCC243D
:1010B000C394E8E9AE2E70E2872E0E94591781EEA4
:1010C00092E00E9492051F910F91FF90EF90CF90B8
:1010D000AF908F90089586E061E00E948620089589
:1010E0001F93CF93DF9380E061E00E94472081E06F
:1010F00060E00E94472081E062E00E94862080E05C
:1011000060E00E94862081E00E94DA20EC0181E00C
:1011100061E00E94472080E060E00E94472080E07C
:1011200062E00E94862081E060E00E94862080E0EC
:101130000E94DA2010E0892B09F411E080E060E0E1
:101140000E94472080E062E00E94862081E060E00B
:101150000E94472081E062E00E948620CD2B31F47E
:10116000112311F481E007C083E005C0112311F4BD
:1011700080E001C082E0DF91CF911F9108950F932D
:101180001F93CF93DF930E947008882311F410E01F
:101190001EC00FEFC0E0D0E00E947008182F80172B
:1011A00019F0C0E0D0E001C0219661E070E080E07D
:1011B00090E00E94871F012FC431D10568F31123ED
:1011C00031F086E990E090938D0280938C02812F1C
:1011D000DF91CF911F910F910895EF92FF920F939E
:1011E0001F93262FE42E01EE12E0682F615021504C
:1011F000C801422F0E94B305C8010E94A30600D077
:1012000000D000D0EDB7FEB73196ADB7BEB712969D
:101210001C930E93119786E191E093838283FF24C0
:10122000E7FCF094F582E4820E9438178DB79EB7F0
:1012300006960FB6F8949EBF0FBE8DBFC8010E94E0
:1012400087061F910F91FF90EF9008958F929F92C4
:10125000AF92BF92CF92DF92EF92FF920F931F93C4
:10126000CF93DF93182FF62ED42E922E84E690E0A3
:10127000642F70E00E94D923E62E972F862F63E01B
:1012800070E00E94D923862E812F6F2D43E80E94A3
:10129000ED08A12EA3940A2D11E0BB24CC24C92D66
:1012A000D0E02AC01E9DC00111248C179D073CF47C
:1012B000802F6F2D47E80E94ED08B12E1BC0CC2077
:1012C000A1F4BE9C802D1124992D981B892F90E0AC
:1012D000682D70E00E94C523462F4D57802F6F2D3B
:1012E0000E94ED08CC24C39405C0802F6F2D48E8E0
:1012F0000E94ED081F5F0F5FD116A0F68A2D8D0D9D
:101300006F2D49E80E94ED08DF91CF911F910F9159
:10131000FF90EF90DF90CF90BF90AF909F908F9015
:101320000895EF92FF920F931F93262F7A0101EEFB
:1013300012E0682F61502150C801422F0E94B3056E
:10134000C8010E94A30600D000D000D0EDB7FEB7C0
:101350003196ADB7BEB712961C930E93119789E1E3
:1013600091E093838283F582E4820E9438178DB7DF
:101370009EB706960FB6F8949EBF0FBE8DBFC801EC
:101380000E9487061F910F91FF90EF900895EF92B2
:10139000FF920F931F93262F7A0101EE12E0682F20
:1013A00061502150C801422F0E94B305C8010E941C
:1013B000A30600D000D000D0EDB7FEB73196ADB790
:1013C000BEB712961C930E9311978CE191E0938314
:1013D0008283F582E4820E9438178DB79EB7069605
:1013E0000FB6F8949EBF0FBE8DBFC8010E9487063E
:1013F0001F910F91FF90EF900895DF92EF92FF926F
:101400000F931F93F82E062FD42EE22E11E00FC05B
:10141000E11629F48F2D602F4FE151E004C08F2D8C
:10142000602F41E251E00E94C7091F5F0F5FD11694
:1014300078F71F910F91FF90EF90DF900895EF9252
:10144000FF920F931F93CF93DF93182F82E064E0F6
:1014500044E251E00E94C709C12FD0E0FE01E056EE
:10146000FA4FE4918AE064E04E2F0E94ED08177075
:10147000412F485E110F812F835F64E00E94ED08C9
:10148000FE01EE0FFF1FE853FA4F459154918AE099
:1014900065E00E94910982E06DE040E451E00E9425
:1014A000C70900E0C85ED94FFE011491C12FD0E0FA
:1014B00013E0CC0FDD1F1A95E1F7B6E6EB2EF12C09
:1014C000E02FEC0F4E2F50E09A01220F331F2853CC
:1014D0003A4FF90185919491405C594FFA0144913A
:1014E0008D5096419C012E9DC0012F9D900D3E9DDB
:1014F000900D112460E472E00E94C523862F86952A
:101500008E5F6DE00E94ED080F5F0830C9F6DF9135
:10151000CF911F910F91FF90EF9008957F928F923E
:101520009F92AF92BF92CF92DF92EF92FF920F9372
:101530001F93DF93CF93CDB7DEB76C970FB6F894B8
:10154000DEBF0FBECDBFC82E1C8EDD245E01089409
:10155000A11CB11C9CE1892E912C8C0E9D1E8AE051
:10156000782E13C0F80180810E94F607F70181935D
:101570007F010A5F1F4FE815F905A1F7672D6D1967
:1015800082E0A5010E94C709D394DC1430F40D2D2C
:1015900010E00C551C4F7501E5CF6C960FB6F89412
:1015A000DEBF0FBECDBFCF91DF911F910F91FF9096
:1015B000EF90DF90CF90BF90AF909F908F907F90F3
:1015C0000895CF92DF92EF92FF920F931F93DF93D4
:1015D000CF93CDB7DEB76C970FB6F894DEBF0FBED2
:1015E000CDBF482FDE011196EFE5F1E08CE10190CF
:1015F0000D928150E1F700E010E066E6C62ED12C96
:101600007E010894E11CF11CF801EA5BFB4FE081CC
:10161000E81728F5F801EE50FD4FE0812E2F30E05D
:10162000F901EE0FFF1FE853FA4F85919491205C6A
:10163000394FF90124918D509641BC016C9DC00138
:101640006D9D900D7C9D900D112460E472E00E94D0
:10165000C5236695F701E60FF11D2083E0E00F5FDB
:101660001F4F0932110511F08E2FCECF82E0642F6B
:10167000AE014F5F5F4F0E94C7096C960FB6F8949A
:10168000DEBF0FBECDBFCF91DF911F910F91FF90B5
:10169000EF90DF90CF9008952F923F924F925F92FC
:1016A0006F927F928F929F92AF92BF92CF92DF9272
:1016B000EF92FF920F931F93DF93CF93CDB7DEB7D7
:1016C000A5970FB6F894DEBF0FBECDBF8D8F742ED9
:1016D00034E6341710F454E6752E6D50764186E6E4
:1016E00090E0AC01649FC001659F900D749F900DC8
:1016F000112460E472E00E94C523162F1695A62ED1
:10170000A09451E0A5222223F1F0DE011196EFE52D
:10171000F1E08CE101900D928150E1F7FE013196EC
:10172000812F90E0AA2021F0E80FF91F81E803C083
:10173000E80FF91F82E8808382E06CE0AE014F5F22
:101740005F4F0E94C70984E690E06D8D70E00E94B3
:10175000D923862E972F862F63E070E00E94D9232D
:10176000662EBB24B394992460E0812F90E08C0115
:10177000000F111F080F191F000F111FA82DB0E037
:10178000BF8FAE8FE72DF0E0F9A3E8A39C012A5CA0
:101790003C4F3BA32AA3AC01455E5C4F5DA34CA329
:1017A0002CE6222E23E0322E280E391E9C012F5FBC
:1017B0003F4F6901CC0CDD1CC20ED31ECC0CDD1CCE
:1017C000F1E54F2EF3E05F2E480E591E01977C0184
:1017D000EE0CFF1CE80EF91EEE0CFF1C7BC04B2D1F
:1017E00050E09A0121503040F801E20FF31FEC5510
:1017F000FC4FE081EF3F09F4E0E0AE8DBF8D4A9FE2
:10180000C0014B9F900D5A9F900D112448A159A1E2
:10181000841795075CF4AA2021F09E2F9F70906397
:1018200003C09E2F907F93609B2C21C06623C1F440
:10183000989C802D1124572D581B852F90E0662DE4
:1018400070E00E94C523AA2031F0EF70962F929588
:10185000907F9E2B03C09E2F907F962B61E007C048
:10186000AA2019F09E2F9F7002C09E2F907FAAA1E0
:10187000BBA18C91882321F0892F82958F70982BA2
:10188000ECA1FDA18081882321F0892F8295807FA2
:10189000982BF801E20FF31FEC55FC4F9083D10118
:1018A0008C91882331F0F601E20FF31FEC55FC4FC9
:1018B0009083F2018081882361F0F701E20FF31F2A
:1018C000EC55FC4F200F311F2C553C4FD9018C910A
:1018D0008083B394BD8DBB1508F081CFA5960FB65C
:1018E000F894DEBF0FBECDBFCF91DF911F910F9156
:1018F000FF90EF90DF90CF90BF90AF909F908F9030
:101900007F906F905F904F903F902F900895CF926F
:10191000DF92EF92FF920F931F93DF93CF93CDB798
:10192000DEB76E970FB6F894DEBF0FBECDBFF82EB0
:10193000E62E6E010894C11CD11CC601BA010E949A
:10194000750501EE12E0FA94EA94C8016F2D4E2D50
:101950000E94B305C8010E94A30600D000D000D0A9
:10196000EDB7FEB73196ADB7BEB712961C930E9386
:1019700011978CE191E093838283D582C4820E9487
:1019800038178DB79EB706960FB6F8949EBF0FBE58
:101990008DBFC8010E9487066E960FB6F894DEBF11
:1019A0000FBECDBFCF91DF911F910F91FF90EF90B0
:1019B000DF90CF9008958F929F92AF92BF92CF9277
:1019C000DF92EF92FF920F931F93DF93CF93CDB7E8
:1019D000DEB7C854D0400FB6F894DEBF0FBECDBFFF
:1019E00081EE92E00E94F00681E062E04BEC51E073
:1019F0000E94870C81E065E04FEA51E00E94870C6D
:101A000081E066E045E951E00E94870C81E068E0F2
:101A100048E751E00E94870C81E06BE04DE551E022
:101A20000E94870C04EC12E0C80140E056E960E037
:101A300070E00E94491700D000D0EDB7FEB71283C6
:101A400001838AE291E0948383830E942717EDB794
:101A5000FEB71283018387EF90E0948383830E9413
:101A60002717EDB7FEB7128301838FEB90E09483C5
:101A700083830E942717EDB7FEB71283018380E9A5
:101A800090E0948383830E942717EE24FF2400E0D4
:101A9000CC24DD240F900F900F900F9069E0A62EBC
:101AA000B12CAC0EBD1E4E010894811C911C84EC1F
:101AB00092E00E94DB17982F8D3031F08D30DCF1F1
:101AC00080538230C0F530C00830A1F59981892F4C
:101AD0008053823078F5913311F490E801C090E0A2
:101AE0008A81813309F4905C8B81813309F4905EA3
:101AF0008C81813309F4905F8D81813309F4985F83
:101B00008E81813309F49C5F8F81813309F49E5F5C
:101B10008885813309F49F5FF501EE0DFF1D9083E9
:101B20000894E11CF11C06C0F401E00FF11D908344
:101B30000F5F01C000E0F0E4EF16F104C1F481EEA4
:101B400092E0B601A5010E94C3050894C11CD11CF6
:101B500084EC92E0B6014AE050E00E94462284EC18
:101B600092E06BE771E00E945922EE24FF248FEF90
:101B7000C816D1040CF49BCF00D000D084EC92E0C6
:101B8000EDB7FEB79283818388E690E094838383E8
:101B90000E9427170F900F900F900F9060ED77E045
:101BA00080E090E00E94871F0C940000C85BDF4F2C
:101BB0000FB6F894DEBF0FBECDBFCF91DF911F915E
:101BC0000F91FF90EF90DF90CF90BF90AF909F90DC
:101BD0008F90089581EE92E00E94F00686E062E028
:101BE0004CE554E00E94870C86E063E048E454E052
:101BF0000E94870C86E064E044E354E00E94870C76
:101C000086E065E040E254E00E94870C86E066E0F2
:101C10004CE054E00E94870C86E067E048EF53E018
:101C20000E94870C86E068E044EE53E00E94870C37
:101C300086E069E040ED53E00E94870C86E06AE0B0
:101C40004CEB53E00E94870C86E06BE048EA53E0DF
:101C50000E94870C80919E03882329F481E167E02C
:101C600047E851E004C081E167E04EE851E00E949E
:101C7000C70980918B02882329F481E168E045E956
:101C800051E004C081E168E04AE951E00E94C709DF
:101C9000089581EE92E00E94F00686E062E048E05E
:101CA00055E00E94870C86E063E045EF54E00E9417
:101CB000870C86E064E042EE54E00E94870C86E0E8
:101CC00065E04FEC54E00E94870C86E066E04CEB48
:101CD00054E00E94870C86E067E049EA54E00E94E5
:101CE000870C86E068E046E954E00E94870C86E0B5
:101CF00069E043E854E00E94870C86E06AE040E730
:101D000054E00E94870C089581EE92E00E94F00654
:101D100086E062E04DE855E00E94870C86E063E0D3
:101D20004AE755E00E94870C86E064E047E655E00C
:101D30000E94870C86E065E044E555E00E94870C30
:101D400086E066E041E455E00E94870C86E067E0AB
:101D50004EE255E00E94870C86E068E04BE155E0DA
:101D60000E94870C0895AF92BF92CF92DF92EF92BC
:101D7000FF920F931F93D82EC62E80E10E9425203C
:101D80007C0171EEA72E72E0B72EDA94CA94C501D9
:101D90006D2D4C2D0E94B305C5010E94A3068DB781
:101DA0009EB70A970FB6F8949EBF0FBE8DBFCDB6F3
:101DB000DEB60894C11CD11CEDB7FEB7B282A18279
:101DC0008FE991E0F6019383828380ED90E0958323
:101DD000848300E010E0C801B7010E94B5222AE028
:101DE00038E240EA5BE30E94432320E030E048E72A
:101DF00051E40E944323F6016683778380879187AD
:101E00000E9438178DB79EB70A960FB6F8949EBFFA
:101E10000FBE8DBFC5010E9487061F910F91FF90D5
:101E2000EF90DF90CF90BF90AF9008951F93182F41
:101E300081EE92E00E94F00682E061E04CE853E01F
:101E40000E94870C112359F482E062E040E753E0DE
:101E50000E94870C82E063E044E553E010C082E01A
:101E600062E048E353E00E94870C82E063E04CE1CB
:101E700053E00E94870C82E064E040E053E00E945F
:101E8000870C82E06BE044EE52E00E94870C86E013
:101E90000E948E0A8AE067E047EA51E00E94C70983
:101EA00087E162E00E94B30E1F910895AF92BF9246
:101EB000CF92DF92EF92FF920F931F9300E010E01A
:101EC000FF248FE00E942520080F191FF3948AE059
:101ED000F816B9F7C8016AE070E00E94C5239B01BB
:101EE000809188028530B1F4809197039091980396
:101EF0006817790720F47093980360939703809193
:101F0000990390919A038217930720F430939A03D0
:101F1000209399034091930350919403241735071C
:101F200010F4BA0109C08091950390919603B9010C
:101F30008217930708F4BC0100D000D0641B750B16
:101F400080E090E0E0909503F0909603E41AF50AA3
:101F500000E010E024E630E040E050E0EDB7FEB7EE
:101F6000218332834383548320E030E040E050E01B
:101F7000E1E0AE2EB12CC12CD12C0E946C220F902E
:101F80000F900F900F90CB011F910F91FF90EF904A
:101F9000DF90CF90BF90AF9008950E94791F20915D
:101FA0008D0330918E03CB01821B930B8E319105F3
:101FB00040F46EE170E0681B790B80E090E00E94D5
:101FC000871F089581E090E00E94E01F85E061E0B6
:101FD0000E94862081E090E00E94E01F089581E049
:101FE00090E00E94E01F85E060E00E94862081E092
:101FF00090E00E94E01F08958DE060E00E9486203E
:1020000081E090E00E94E01F8BE060E00E9486206B
:1020100081E090E00E94E01F8DE061E00E94862058
:1020200081E090E00E94E01F8DE060E00E94862049
:1020300081E090E00E94E01F08958DE060E00E9442
:10204000862081E090E00E94E01F8BE061E00E942A
:10205000862081E090E00E94E01F8DE061E00E9418
:10206000862081E090E00E94E01F8DE060E00E9409
:10207000862081E090E00E94E01F0895FF920F9378
:102080001F93E82FF0E0EE0FFF1FE859F94F05917D
:1020900014911CBC0E94E20F0E94EF0F0E941D10C1
:1020A0000E94FC0F0E94FC0F0E94FC0F0E941D105A
:1020B000A0E1FA2E00FF03C00E941D1002C00E9482
:1020C000FC0FFA9419F016950795F4CF0E94FC0FB7
:1020D0000E94FC0F0E94FC0F0E94FC0F0E94E20F66
:1020E0008FE694E060E00E94FC161F910F91FF9034
:1020F0000895FF920F931F93CF93DF93F82EE4EA96
:10210000F3E08FEF8083818382838383848385835D
:10211000369694E0E634F907A9F7C3EFD2E010E071
:102120000881802F0E943E100E94791F60938D03CA
:1021300070938E0380938F03909390030E94CD0F32
:102140000E94560F482F80938903181708F4182F00
:10215000E02FF0E0EE0FFF1FE853FA4F6591749106
:102160008F2D20E00E944C0B219683E0CB31D807C5
:10217000B9F680E5189FC001112464E670E00E9462
:10218000C52360938F02DF91CF911F910F91FF9034
:1021900008950F931F93182F062F81EE92E00E944F
:1021A000F00682E061E048EC52E00E94870C1123C7
:1021B00071F480919E03813029F482E062E04CEA60
:1021C00052E009C082E062E040E952E004C082E0EF
:1021D00062E044E752E00E94870C87E162E00E94DF
:1021E000B30E82E063E048E552E00E94870C82E093
:1021F00065E04CE352E00E94870C82E066E040E23A
:1022000052E00E94870C82E067E044E052E00E94C6
:10221000870C82E06BE048EE51E00E94870C802F33
:102220000E941F0A83E00E948E0A8AE069E047EA62
:1022300051E00E94C70983E00E9479108FEF8093DC
:102240008B0383E00E948E0A1F910F910895CF9215
:10225000DF92EF92FF920F931F93CF93DF93209122
:102260008C0230918D022115310521F080919F0360
:10227000813029F581EE92E060E00E945D0606C0A3
:1022800064E670E080E090E00E94871F0E94BF0833
:102290008823B1F386E990E090938D0280938C02BD
:1022A00010929F0381EE92E06091A1030E945D066F
:1022B0000E94BF088823E1F710929F030AC0809113
:1022C000A003882331F42150304030938D022093B5
:1022D0008C0280918802843009F433C40E94BF08C4
:1022E000833009F02EC480918A03863038F086E06E
:1022F0008093880281E080939D0303C08F5F809369
:102300008A0380919203882339F490918802809106
:102310008A02981709F47EC0109292038091880275
:10232000833009F44BC0843038F4813009F446C05E
:10233000823009F065C009C0853039F0853008F475
:1023400051C0863009F05CC053C0823021F480E077
:102350000E94160F29C081E00E94160F109294036C
:102360001092930380E991E09093960380939503F4
:10237000909398038093970310929A031092990375
:1023800085E090E090939C0380939B03E4EAF3E064
:102390008FEF8083818382838383848385833696D2
:1023A00094E0E634F907A9F7109287038091F302CD
:1023B0008093880382E08093A1031FC0833011F4CF
:1023C00080E002C0813021F4609188030E94C9102E
:1023D00081E080938C038093A3038093A1031092E8
:1023E000A0030EC082E08093A1030E94EA0D05C005
:1023F00082E08093A1030E94490E81E08093A003B4
:1024000081EE92E06091A1030E945D0680918802B6
:1024100080938A0280918802833021F0813009F014
:10242000DAC046C00E94BF08823001F580919E0349
:10243000813051F4809188038F5F809388038832C4
:10244000A8F01092880312C08091A203873220F472
:102450008F5F8093A20302C01092A203E091A203B7
:10246000F0E0ED50FD4F8081809388030E94BF080B
:102470008130F1F480919E03813049F4809188038A
:10248000815080938803883298F087E20FC0809152
:10249000A203882311F0815001C087E28093A20338
:1024A000E091A203F0E0ED50FD4F8081809388031E
:1024B00020918803E3EFF2E090E08081821729F019
:1024C0009F5F31969832C9F790E0909387030E94FE
:1024D000CD0F0E94560F482F809389038091880367
:1024E000E82FF0E0EE0FFF1FE853FA4F659174916B
:1024F00083E021E00E944C0B83E00E948E0A89E079
:1025000066E041E1209189030E94260980918803B9
:102510000E941F0A10918802113009F0ECC28091CC
:1025200091038823A9F580918C03882359F4909115
:10253000890380918F02891728F4109391031092D8
:10254000A003D9C210928C0381E08093A0038091F4
:10255000A30390918703882339F0973210F49F5F8B
:1025600006C01092870309C0992321F091509093DF
:10257000870303C087E280938703E0918703F0E03D
:10258000ED50FD4F8081809388030E941F0AB3C2E3
:1025900082E062E042EB51E00E94C7090E94BF085E
:1025A000823039F410938C031093A303109291039B
:1025B0000CC00E94BF08813009F09DC280938C033B
:1025C0001092A3031092910382E062E044EC51E088
:1025D0000E94C70990C2823019F0853009F018C1F5
:1025E000C4EAD3E0FE018FEF8083818382838383FB
:1025F00084838583369694E0E634F907A9F710E0E2
:10260000DD2456E0C52E6AC0E12EFF24F701ED500F
:10261000FD4F0081802F0E943E100E94791F609321
:102620008D0370938E0380938F039093900328C043
:102630000E94BF08833021F4C0928A03DD24D39422
:10264000809188028530E1F00E94BF088230C1F499
:1026500083E062E046ED51E00E94C7090E94BF0896
:102660008230E1F30E94BF088823E1F383E062E057
:1026700048EE51E00E94C7090E94BF088230E1F392
:102680000E94791F20918D0330918E0340918F031A
:1026900050919003621B730B840B950B6E31710587
:1026A0008105910528F20E94560F80938903F70156
:1026B000EA5BFB4F843210F0808301C01082E02F70
:1026C000F0E0EE0FFF1FE853FA4F6591749186E03A
:1026D0004091890320E00E944C0B1F5FDD2019F41C
:1026E000183208F491CF86E00E948E0A84E00E949E
:1026F000E10A80918802853009F077C080919B03C0
:1027000090919C03019790939C0380939B03019667
:1027100009F04DC08091970390919803482F8093C2
:102720009303909394038091990390919A030A964E
:10273000909396038093950381E894E062E070E0C3
:102740000E94F01D4091940381E894E063E070E002
:102750000E94F01D81E894E064E070E040919503F0
:102760000E94F01D4091960381E894E065E070E0DE
:102770000E94F01D809189028093880286E06DE0BE
:102780004AEF51E00E94C70968EE73E080E090E0F4
:102790000E94871F8FEF888389838A838B838C8332
:1027A0008D83269694E0C634D907A9F71EC082E02F
:1027B00063E04CE052E00E94C70940919B035091B6
:1027C0009C0387E063E00E94910940919703509138
:1027D00098038EE063E00E94910940919903509123
:1027E0009A0388E163E00E94910980918703873210
:1027F00020F48F5F8093870302C010928703E091DB
:102800008703F0E0ED50FD4F80818093880373C112
:10281000863009F087C087E065E045E021E00E944E
:10282000FD0910E00FEFFF24F39476C080919D0323
:10283000882331F010929D030E94BF088823E1F79E
:102840000E94BF08833081F4143010F010E001C002
:102850001F5F212F2F5F87E065E045E00E94FD09A3
:102860000E94BF088330E1F30E94BF08823009F064
:1028700053C0123049F1133030F4112351F01130AC
:1028800009F04AC00BC0133089F1143009F044C07C
:102890003FC080918902809388023EC010938802D5
:1028A0001093890210938C0310929103E4EAF3E0F1
:1028B000008301830283038304830583369684E0C7
:1028C000E634F807A9F728C010938802109389020C
:1028D000E4EAF3E000830183028303830483058336
:1028E000369694E0E634F907A9F716C010938802EB
:1028F00010938902E4EAF3E00083018302830383F7
:1029000004830583369684E0E634F807A9F704C00B
:10291000F0929D031093880280918802863009F41A
:1029200085CFE9C0843009F0E6C087E065E046E085
:1029300021E00E94FD0910E0FF24F3940FEFD6C0C0
:1029400080919D03882331F010929D030E94BF085F
:102950008823E1F70E94BF08833081F4153010F01E
:1029600010E001C01F5F212F2F5F87E065E046E088
:102970000E94FD090E94BF088330E1F30E94BF0856
:10298000823009F0B3C0123009F441C0133030F482
:102990001123C1F1113009F0A9C00AC0143009F4A3
:1029A00092C0143008F465C0153009F09FC09CC077
:1029B00081E894E060E070E0409189020E94F01D9F
:1029C00081E894E061E070E0409188030E94F01D8E
:1029D00081E894E066E070E040918B020E94F01D77
:1029E00086E06CE04AEF51E00E94C70968EE73E0B0
:1029F00080E090E00E94871F86E06CE048E252E0B1
:102A00000E94C70980918902809388026FC08091DB
:102A10009E03882339F4F0929E0381E167E04EE83B
:102A200051E006C010929E0381E167E047E851E063
:102A30000E94C70981E894E067E070E040919E033E
:102A40000E94F01D8BE06CE04AE352E00E94C7094F
:102A500068EE73E080E090E00E94871F8BE06CE0FE
:102A60004BE452E00E94C7090E94BF088230E1F3A4
:102A70003DC080918B02882339F4F0928B0281E172
:102A800068E04AE951E006C010928B0281E168E0FB
:102A900045E951E00E94C70981E894E066E070E0F2
:102AA00040918B020E94F01D84E06CE04CE552E006
:102AB0000E94C70960ED77E080E090E00E94871FE8
:102AC0000C94000013C085E080938802E4EAF3E0F0
:102AD000008301830283038304830583369694E095
:102AE000E634F907A9F702C00E94DB0C8091880246
:102AF000843009F425CF9091880380918B03891746
:102B000089F0892F0E943E108091880380938B0367
:102B10000E94791F60938D0370938E0380938F03BF
:102B20009093900380918E02815080938E028F5FEC
:102B300059F484E180938E0287E162E00E94B30E33
:102B400003C010928A03DDCBDF91CF911F910F91CB
:102B5000FF90EF90DF90CF9008950F931F93CF9346
:102B6000DF9381E08093360380936D0380931E038F
:102B700080933A0380933B038093580380933F03F1
:102B8000809328038093460380937D0380932F03D3
:102B900080934B038093680380934D0380936B0372
:102BA0008093350380E090E0FC01ED50FD4F808381
:102BB000019688329105C1F7C0E0D0E025C00C91A4
:102BC000E02FF0E0EE0FFF1FE853FA4F259134910C
:102BD0006F5F7F4F11961C911197E12FF0E0EE0F80
:102BE000FF1FE853FA4F859194918217930720F4C1
:102BF0001C9311960C931197119646175707FCF6E4
:102C00002196C732D10551F0A3EFB2E060E070E049
:102C1000AE0140955095495D5F4FEFCFC8E0D0E0E1
:102C200081E894E0BE010E94E91DFE01E055F94FE4
:102C300025913491821731F42196C931D10581F75C
:102C400000E04BC081E894E060E070E041E00E9469
:102C5000F01D81E894E061E070E040E00E94F01D2A
:102C600081E894E062E070E04AE50E94F01D81E8AE
:102C700094E063E070E040E00E94F01D81E894E0A1
:102C800064E070E04CE20E94F01D81E894E065E0B1
:102C900070E041E00E94F01D81E894E066E070E0A1
:102CA00040918B020E94F01D81E894E067E070E0A3
:102CB00040919E030E94F01DC8E0D0E0FE01E05567
:102CC000F94F4591549181E894E0BE010E94F01DB6
:102CD0002196C931D10591F701E081E894E060E0E7
:102CE00070E00E94E91D8093880281E894E061E031
:102CF00070E00E94E91D8093880381E894E063E01E
:102D000070E00E94E91D182F81E894E062E070E015
:102D10000E94E91D312F20E090E0282B392B3093C1
:102D200094032093930381E894E065E070E00E94AF
:102D3000E91D182F81E894E064E070E00E94E91D2D
:102D4000312F20E090E0282B392B309396032093ED
:102D5000950381E894E066E070E00E94E91D8093AD
:102D60008B0281E894E067E070E00E94E91D8093A7
:102D70009E0381E0809392030E946B0860918B0216
:102D800081EE92E070E00E94A20581EE92E00E9446
:102D9000070781EE92E068E20E94410681EE92E030
:102DA00069E10E94250685E061E00E94472085E0F8
:102DB00061E00E94862085E061E00E9447208BE070
:102DC00061E00E9447208DE061E00E9447200E9460
:102DD000840E002331F083E06CE041E752E00E9472
:102DE000C70960ED77E080E090E00E94871FDF91E7
:102DF000CF911F910F9108951CBC6C7263656CBDDF
:102E00008DB58EB508956EBD0DB407FEFDCF8EB5A0
:102E100008958DE061E00E9447208BE061E00E9410
:102E200047208CE060E00E9447208AE061E00E9439
:102E300047201CBC83E58CBD8DB58EB508958FE60B
:102E400094E00E94091708958FEF9FE70895DF939C
:102E5000CF93CDB7DEB7FE0139968D819E8161E0BB
:102E60004F8158859F010E94C819CF91DF91089525
:102E7000DF93CF93CDB7DEB7FE0139968D819E816A
:102E800060E04F8158859F010E94C819CF91DF9162
:102E900008950F931F93DC01ED91FC910288F38953
:102EA000E02D20E030E000E010E009951F910F9147
:102EB00008958F92AF92CF92EF92FF920F931F934C
:102EC000DF93CF93CDB7DEB7FC011382128288EE79
:102ED00093E0A0E0B0E084839583A683B7838DEA76
:102EE00092E0918380835587448737872687118BAB
:102EF000008BF38AE28AC48AA58A868A70E0CB01B5
:102F000023E0880F991F2A95E1F79C0120593B4F38
:102F1000308F278B88589B4F928F818F81E090E074
:102F200002C0880F991F6A95E2F720918004282B30
:102F300020938004CF0140E051EE60E070E00E94F9
:102F40004917CF91DF911F910F91FF90EF90CF9094
:102F5000AF908F900895FC01838D882319F42FEF93
:102F60003FEF0DC00788F08DE02D208131818281F7
:102F70009381281B390B8481958128233923C9012A
:102F80000895FC01838D882319F42FEF3FEF11C0C2
:102F9000018CF28DE02D2081318182819381281B6B
:102FA000390B2095309584819581282339232F5F13
:102FB0003F4FC9010895FC01838D882361F0A789E3
:102FC000B08D2D913C91119712968D919C911397F4
:102FD0002817390721F44FEF5FEFCA0108951296C1
:102FE0008D919C9113971696ED91FC911797E80F90
:102FF000F91F408112968D919C911397019614961A
:103000002D913C9115978223932313969C938E9335
:10301000129750E0E2CFFC01838D882351F007889E
:10302000F08DE02D2081318182819381281739072D
:1030300021F42FEF3FEFC90108958281938106802B
:10304000F781E02DE80FF91F8081282F30E0F3CFC2
:10305000DC015796ED91FC91589782819381918381
:1030600080835996ED91FC915A9780819181938349
:1030700082830895DC015B968C915B978823A9F18C
:103080005996ED91FC915A97208131812F5F3F4FE6
:1030900084819581282339235C968C915C978823C1
:1030A00029F08281938128173907F9F08281938171
:1030B00028173907D9F3808191810680F781E02DA7
:1030C000E80FF91F60835996ED91FC915A9731836F
:1030D00020835296ED91FC915397808156969C9156
:1030E000892B808321E030E002C020E030E0C9017C
:1030F0000895CF93DF93EC011B821A828A819B8112
:10310000998388831D821C828E819F81009721F084
:103110000E94991E1F821E82DF91CF9108950F9306
:103120001F938C01DC015296ED91FC915397208105
:1031300056968C91569755969C915597892B8095CC
:103140008223808357968D919C9158970E9479187D
:10315000F801818D928D0E947918D8015B961C929E
:103160001F910F9108950F931F93CF93DF938C01BD
:10317000FC0113821282828193819183808341E0DA
:10318000A1E0B0E001C04F5FFD01042E02C0EE0FD0
:10319000FF1F0A94E2F79B0182E06130780710F08C
:1031A00020E032E0E217F30770F3C1E0D0E002C0A4
:1031B000CC0FDD1F4A95E2F72197F8012681378170
:1031C0002115310541F0848195818C179D0789F087
:1031D000C9010E94991EF801D583C483CE010196CE
:1031E0000E94FC1D9C01F8019783868380E0232BBD
:1031F00009F081E0DF91CF911F910F910895AF9277
:10320000BF92CF92DF92EF92FF920F931F93CF93D3
:10321000DF937C015A016B01E901DC015B968C9123
:103220005B978823F1F02115310539F45796ED911C
:10323000FC915897C481D58121960115110549F457
:10324000D7015996ED91FC915A97048115810F5F32
:103250001F4FD701ED91FC910088F189E02DC70146
:103260000995F7018789908D209711F4C0E8D0E087
:10327000BE010E94B318882381F0D70159968D9121
:103280009C915A970115110511F400E110E0B80165
:103290000E94B318882309F04DC0D701ED91FC912D
:1032A0000088F189E02DC701099567C0D7015096C4
:1032B000ED91FC915197B0E0AB16B1EEBB06B0E0DA
:1032C000CB06B0E0DB0609F454C081E090E0D70102
:1032D00054960C9002C0880F991F0A94E2F78083DD
:1032E00060E079E08DE390E0A60195010E940E2454
:1032F0002150304040405040CA01B90122E030E046
:1033000040E050E00E940E24D7011C96ED91FC9104
:103310001D9730831E96ED91FC911F972083D70156
:103320005296ED91FC915397808155969C91892BF3
:10333000808323C0D7015996ED91FC915A9713824F
:10334000128282819381918380835796ED91FC91C3
:10335000589713821282828193819183808381E0C6
:103360005B968C931A141B041C041D040CF49ECF52
:10337000D6CF108220E130E0C7CFDF91CF911F91EF
:103380000F91FF90EF90DF90CF90BF90AF90089596
:103390002F923F924F925F926F927F928F929F9265
:1033A000AF92BF92CF92DF92EF92FF920F931F9353
:1033B000DF93CF93CDB7DEB764970FB6F894DEBF37
:1033C0000FBECDBF3C01688B5A8B498B69011C0134
:1033D000AE014F5F5F4F5C8B4B8BE989FA8948895F
:1033E00040FD659140FF6191FA8BE98B662309F4FA
:1033F000D7C3653249F440FD859140FF8191FA8B36
:10340000E98B8532B1F40CC06A3051F4D301ED91EF
:10341000FC910190F081E02DC1016DE009956AE019
:10342000D301ED91FC910190F081E02DC10109954E
:10343000D4CF982F10E0882499241032B0F49B3216
:1034400069F09C3228F4903251F0933271F40BC041
:103450009D3239F0903349F4116028C01260146035
:1034600025C0186023C0106121C017FD2BC0892F13
:1034700080538A3078F416FF06C0BAE09B9E902CE9
:103480001124980E13C0EAE08E9E802C1124880E21
:1034900010620CC09E3221F416FD82C3106406C077
:1034A0009C3611F4106802C0983661F4E989FA89F3
:1034B000488940FD959140FF9191FA8BE98B9923C2
:1034C00009F0BBCF892F8554833020F4812F806190
:1034D000905E07C0892F8556833008F0E6C1812FA2
:1034E0008F7E86FD02C076E0972E6FE3F62EF822DF
:1034F000953619F450E4F52A07C0963619F480E899
:10350000F82A02C091109A94F7FE0BC09BE399151C
:1035100020F427E05CE3B52E0DC0B92CB39427E06E
:1035200009C0A7E0A91520F447E0942E27E001C0C8
:10353000292DBB24F6013496FD87EC87D6016D91C9
:103540007D918D919C91AE014F5F5F4F0B2D0E943D
:103550003F046C010981E02FF0E0FF87EE8700FF58
:1035600005C0FE85F3FD02C01DE209C0F1FE02C0E8
:103570001BE205C0F2FC02C010E001C010E28E8523
:103580009F858C709070892B09F444C0112311F42D
:1035900083E001C084E0881510F088240EC0881AEA
:1035A000F3FC0BC0D301ED91FC910190F081E02D73
:1035B000C10160E209958A94A9F7112349F0D3016A
:1035C000ED91FC910190F081E02DC101612F0995F1
:1035D000BE85B3FF03C003EC17E012C007EC17E091
:1035E0000FC0E114F10409F06052D301ED91FC9198
:1035F0000190F081E02DC10109950F5F1F4F05C0BB
:10360000EF2CFF24B0E1EB22FF24F8016491662344
:1036100041F748C1F7FE13C0BC0CFE85F4FF04C09F
:103620008A81813309F4BA941B141CF0BB24B3942F
:103630002DC048E04B1550F538E0B32E27C0F6FCFE
:1036400025C0892D90E08C159D054CF05CEFC516CA
:103650005FEFD50624F080E8F82A01C09A949920FB
:1036600049F0E2E0F0E0EC0FFD1FE90DF11D808173
:103670008033A1F3F7FE0AC0B92CB394892D90E0F2
:10368000C816D90614F0992401C09C18F7FC03C091
:1036900025E030E009C01C141D041CF021E030E0DE
:1036A00003C096012F5F3F4F112311F02F5F3F4F53
:1036B000992029F0892D90E00196280F391F882D37
:1036C00090E02817390714F0882401C0821A4F2C83
:1036D0005524C20189709070892B59F00CC0D30118
:1036E000ED91FC910190F081E02DC10160E209951E
:1036F0008A948820A1F7112349F0D301ED91FC9120
:103700000190F081E02DC101612F099543FE0BC0AE
:103710000CC0D301ED91FC910190F081E02DC1012D
:1037200060E309958A948820A1F7F7FE51C08601CD
:10373000D7FE02C000E010E076010894E11CF11C05
:10374000E01AF10AE1E0F0E0EC0FFD1FEE0EFF1EC3
:1037500026014B185108892D90E0AA24BB24A81AF1
:10376000B90AFFEF0F3F1F0749F4D301ED91FC9118
:103770000190F081E02DC1016EE20995C016D106DD
:1037800034F0401651061CF4F701608101C060E37B
:10379000015010400894E11CF11C0A151B054CF067
:1037A000D301ED91FC910190F081E02DC1010995CB
:1037B000D8CF0C151D0541F48A81863320F485335A
:1037C00019F4BE85B4FF61E3D301ED91FC9165C0AE
:1037D0006A81613309F00F7ED301ED91FC91019074
:1037E000F081E02DC10109959920E1F0D301ED911F
:1037F000FC910190F081E02DC1016EE2099512E08B
:10380000E1E0F0E0EC0FFD1FE10FF11D60811F5FB3
:10381000D301ED91FC910190F081E02DC10109955A
:103820009A9471F7D301ED91FC910190F081E02D14
:1038300044FC02C065E601C065E4C1010995D7FCFE
:1038400005C0C114D10441F404FF06C0D094C19452
:10385000D108D3946DE201C06BE2D301ED91FC91EC
:103860000190F081E02DC101099560E305C06F5F13
:10387000E6EFFFEFCE0EDF1EFAE0CF16D104BCF765
:10388000D301ED91FC910190F081E02DC1010995EA
:10389000D301ED91FC916C2D605D0190F081E02DE4
:1038A000C1010995CC84DD8478C1933631F093371A
:1038B00099F0933509F061C023C0F60180818983B6
:1038C0005E010894A11CB11C42E050E0C40ED51E5C
:1038D00021E0E22EF12C12C0D601AD90BC9016FD75
:1038E00003C06FEF7FEF02C0692D70E0E2E0F0E00F
:1038F000CE0EDF1EC5010E9487057C011F7713C015
:10390000D601AD90BC9016FD03C06FEF7FEF02C0F3
:10391000692D70E0E2E0F0E0CE0EDF1EC5010E94EE
:103920007C057C01106813FF0BC023C0D301ED910F
:10393000FC910190F081E02DC10160E209958A942B
:10394000882D90E0E816F90688F313C0F50117FDFD
:10395000659117FF61915F01D301ED91FC91019099
:10396000F081E02DC101099581108A940894E10845
:10397000F108E114F10451F710C1943611F09936B1
:1039800099F517FF0AC0F6012081318142815381E8
:1039900084E090E0C80ED91E0CC0D6018D919C9198
:1039A0009C01442737FD4095542FE2E0F0E0CE0E15
:1039B000DF1E9FE6F92EF12257FF09C05095409572
:1039C000309521953F4F4F4F5F4FF0E8FF2ACA01D6
:1039D000B901AE014F5F5F4F2AE030E00E9417054A
:1039E000E82E4B89E41A41C0953721F41F7E2AE066
:1039F00030E01CC0197F9F3661F0903720F4983575
:103A000009F0CEC00FC0903739F0983709F0C8C020
:103A100004C028E030E00AC0106114FD146020E109
:103A200030E004C014FD166020E132E017FF08C04A
:103A3000D6016D917D918D919C91E4E0F0E008C0FC
:103A4000D6018D919C91BC0180E090E0E2E0F0E035
:103A5000CE0EDF1EAE014F5F5F4F0E941705E82EAE
:103A6000FB89EF1A8FE7F82EF122F6FE0BC04EEF1E
:103A7000F422E91438F4F4FE07C0F2FC05C05FEE4E
:103A8000F52202C01E2D01C0192DF4FE0DC0FE014D
:103A9000EE0DF11D8081803319F489EEF82208C003
:103AA0001F5FF2FE05C003C08F2D867809F01F5FEF
:103AB0000F2DF3FC18C0F0FE13C0181510F09E2C4B
:103AC0000FC09E2C980C911A182D0AC0D301ED91AD
:103AD000FC910190F081E02DC10160E209951F5F2A
:103AE0001815A0F304C0181510F4811A01C0882419
:103AF00004FF17C0D301ED91FC910190F081E02DFE
:103B0000C10160E3099502FF29C0D301ED91FC9149
:103B10000190F081E02D01FD02C068E712C068E568
:103B200010C0802F8678D1F001FF02C06BE201C087
:103B300060E2F7FC6DE2D301ED91FC910190F08120
:103B4000E02DC10109950AC0D301ED91FC910190CE
:103B5000F081E02DC10160E309959A94E914A0F386
:103B6000EA94D301ED91FC91A1E0B0E0AC0FBD1F50
:103B7000AE0DB11D0190F081E02DC1016C91099550
:103B8000EE2071F70AC0D301ED91FC910190F08114
:103B9000E02DC10160E209958A948820A1F71DCC2F
:103BA00064960FB6F894DEBF0FBECDBFCF91DF9104
:103BB0001F910F91FF90EF90DF90CF90BF90AF904B
:103BC0009F908F907F906F905F904F903F902F903D
:103BD0000895F999FECF72BD61BDF89A80B5089538
:103BE000F999FECF1FBA72BD61BD40BD0FB6F89402
:103BF000FA9AF99A0FBE08950F931F93CF93DF930C
:103C0000BC018230910510F462E070E0E0918D0417
:103C1000F0918E0440E050E0A0E0B0E024C080814C
:103C2000918186179707D0F08617970771F48281E4
:103C30009381109729F013969C938E9312972CC022
:103C400090938E0480938D0427C04115510519F07F
:103C50008417950718F48D01AC01EF01DF01828113
:103C600093819C01F9013097D1F641155105F9F086
:103C7000CA01861B970B8430910580F48A819B8151
:103C80000115110521F0F8019383828304C09093FC
:103C90008E0480938D04FE01329645C0FE01E80F2C
:103CA000F91F619371930297998388833CC0809137
:103CB0008B0490918C04892B41F480919202909115
:103CC000930290938C0480938B04409194025091C2
:103CD00095024115510541F44DB75EB780919002B0
:103CE00090919102481B590B20918B0430918C04C8
:103CF00024173507B0F4CA01821B930B8617970768
:103D000080F0AB014E5F5F4F8417950750F0420F74
:103D1000531F50938C0440938B04F901619371936A
:103D200002C0E0E0F0E0CF01DF91CF911F910F9151
:103D30000895CF93DF939C01009709F48FC0EC01A5
:103D400022971B821A8260918D0470918E046115F6
:103D5000710581F488819981820F931F20918B04D2
:103D600030918C042817390739F5D0938C04C0930F
:103D70008B0474C0DB0140E050E0AC17BD0708F1D4
:103D8000BB83AA83FE0121913191E20FF31FAE178D
:103D9000BF0779F48D919C911197280F391F2E5FE1
:103DA0003F4F3983288312968D919C9113979B8363
:103DB0008A834115510571F4D0938E04C0938D040C
:103DC0004DC012968D919C911397AD01009711F003
:103DD000DC01D3CFDA011396DC93CE931297FA016C
:103DE00021913191E20FF31FCE17DF0769F488812B
:103DF0009981280F391F2E5F3F4FFA0131832083AD
:103E00008A819B8193838283E0E0F0E0DB0112965C
:103E10008D919C911397009719F0BC01FD01F6CF8D
:103E2000AB014E5F5F4FDB018D919C91840F951F1D
:103E300020918B0430918C042817390779F430973E
:103E400029F410928E0410928D0402C01382128203
:103E50004250504050938C0440938B04DF91CF919B
:103E600008951F920F920FB60F9211242F933F9334
:103E70008F939F93AF93BF93809186049091870413
:103E8000A0918804B091890430918A040196A11D03
:103E9000B11D232F2D5F2D3720F02D570196A11D29
:103EA000B11D20938A048093860490938704A09385
:103EB0008804B09389048091820490918304A09136
:103EC0008404B09185040196A11DB11D80938204E4
:103ED00090938304A0938404B0938504BF91AF9121
:103EE0009F918F913F912F910F900FBE0F901F9038
:103EF00018958FB7F89420918604309187044091EB
:103F00008804509189048FBFB901CA0108959B01AB
:103F1000AC017FB7F8948091820490918304A091C2
:103F20008404B091850466B5A89B05C06F3F19F065
:103F30000196A11DB11D7FBFBA2FA92F982F8827E9
:103F4000860F911DA11DB11D62E0880F991FAA1F48
:103F5000BB1F6A95D1F7BC012DC0FFB7F8948091C3
:103F6000820490918304A0918404B0918504E6B505
:103F7000A89B05C0EF3F19F00196A11DB11DFFBF21
:103F8000BA2FA92F982F88278E0F911DA11DB11D23
:103F9000E2E0880F991FAA1FBB1FEA95D1F7861B85
:103FA000970B885E9340C8F221503040404050400B
:103FB00068517C4F211531054105510571F6089571
:103FC000019739F0880F991F880F991F0297019761
:103FD000F1F70895789484B5826084BD84B58160DA
:103FE00084BD85B5826085BD85B5816085BDEEE601
:103FF000F0E0808181608083E1E8F0E010828081E0
:1040000082608083808181608083E0E8F0E080814D
:1040100081608083E1EBF0E0808184608083E0EB6D
:10402000F0E0808181608083EAE7F0E08081846055
:1040300080838081826080838081816080838081B1
:10404000806880831092C1000895982F8E3008F008
:104050009E509770809196028295880F880F807C81
:10406000892B80937C0080917A00806480937A0011
:1040700080917A0086FDFCCF2091780040917900F4
:10408000942F80E030E0282B392BC9010895CF937D
:10409000DF93482F50E0CA018350984FFC013491C0
:1040A0004751584FFA018491882369F190E0880FB5
:1040B000991FFC01E553F84FA591B491FC01EB5217
:1040C000F84FC591D491662351F42FB7F8948C9191
:1040D000932F909589238C93888189230BC062301C
:1040E00061F42FB7F8948C91932F909589238C933A
:1040F0008881832B88832FBF06C09FB7F8948C914B
:10410000832B8C939FBFDF91CF910895482F50E070
:10411000CA018F5E974FFC012491CA018350984FCA
:10412000FC0194914751584FFA013491332309F41B
:1041300040C0222351F1233071F0243028F4213083
:10414000A1F0223011F514C02630B1F02730C1F0B3
:104150002430D9F404C0809180008F7703C080910F
:1041600080008F7D8093800010C084B58F7702C05F
:1041700084B58F7D84BD09C08091B0008F7703C066
:104180008091B0008F7D8093B000E32FF0E0EE0FC0
:10419000FF1FEB52F84FA591B4912FB7F894662307
:1041A00021F48C919095892302C08C91892B8C935A
:1041B0002FBF0895682F70E0CB018F5E974FFC01F1
:1041C0002491CB018350984FFC0144916751784F63
:1041D000FB019491992319F420E030E03CC02223A4
:1041E00051F1233071F0243028F42130A1F0223035
:1041F00011F514C02630B1F02730C1F02430D9F4C5
:1042000004C0809180008F7703C0809180008F7DF3
:104210008093800010C084B58F7702C084B58F7DF5
:1042200084BD09C08091B0008F7703C08091B00039
:104230008F7D8093B000892F90E0880F991F815265
:10424000984FFC01A591B4918C9120E030E084233B
:1042500011F021E030E0C9010895CF93DF930E946F
:10426000EA1F0E94AD15C0E0D0E00E942711209700
:10427000E1F30E940000F9CFCF92DF92EF92FF921C
:104280000F931F93CF93DF937C016B018A01C0E0F2
:10429000D0E00FC0D6016D916D01D701ED91FC9179
:1042A0000190F081E02DC7010995C80FD91F015079
:1042B00010400115110571F7CE01DF91CF911F91CB
:1042C0000F91FF90EF90DF90CF900895EF92FF92C3
:1042D0000F931F938C01DC01ED91FC910190F08113
:1042E000E02D6DE009957C01D801ED91FC910190E4
:1042F000F081E02DC8016AE009959C012E0D3F1D5B
:10430000C9011F910F91FF90EF900895CF93DF9314
:10431000EC016115710519F420E030E00FC0DB01FC
:104320000D900020E9F71197A61BB70BE881F981E2
:104330000280F381E02DAD0109959C01C901DF9157
:10434000CF9108954F925F927F928F929F92AF92FA
:10435000BF92CF92DF92EF92FF920F931F93DF9362
:10436000CF93CDB7DEB7A1970FB6F894DEBF0FBEDF
:10437000CDBF2C01742ECB01223008F42AE019A203
:1043800031E2C32ED12CCC0EDD1E822E9924AA241C
:10439000BB24672D752FA50194010E94EC237901A0
:1043A0008A01C801B701A50194010E94A623472DE7
:1043B000461B0894C108D1084A3014F4405D01C07E
:1043C000495CF6014083E114F1040105110521F077
:1043D0007E2C5F2DC801DDCFC201B6010E9486216F
:1043E000A1960FB6F894DEBF0FBECDBFCF91DF917F
:1043F0001F910F91FF90EF90DF90CF90BF90AF9003
:104400009F908F907F905F904F900895CF92DF9212
:10441000EF92FF920F931F93CF93DF93EC016A010A
:104420007B012115310541F4E881F9810190F0818A
:10443000E02D642F09951FC02A303105D1F477FF94
:1044400017C0E881F9810190F081E02D6DE20995B6
:104450008C0144275527BA014C195D096E097F0963
:10446000CE012AE00E94A2219801280F391F04C022
:104470002AE00E94A2219C01C901DF91CF911F91E6
:104480000F91FF90EF90DF90CF900895EF92FF9201
:104490000F931F937B019A010027F7FC0095102FC3
:1044A000B801A7010E9406221F910F91FF90EF9083
:1044B0000895EF92FF920F931F937C010E94862133
:1044C0008C01C7010E946621080F191FC8011F91A6
:1044D0000F91FF90EF9008952F923F924F925F922D
:1044E0006F927F928F929F92AF92BF92CF92DF9204
:1044F000EF92FF920F931F93DF93CF93CDB7DEB769
:104500003B014C0119012A016D897E898F89988DA3
:104510006A197B098C099D09621A730A840A950A33
:10452000A40193010E94A623E218F30804091509C7
:10453000A80197010E940E242A0D3B1D4C1D5D1DF4
:10454000B901CA01CF91DF911F910F91FF90EF90B8
:10455000DF90CF90BF90AF909F908F907F906F90A3
:104560005F904F903F902F900895E89409C097FB7B
:104570003EF490958095709561957F4F8F4F9F4F3A
:104580009923A9F0F92F96E9BB279395F69587957E
:1045900077956795B795F111F8CFFAF4BB0F11F441
:1045A00060FF1BC06F5F7F4F8F4F9F4F16C08823E8
:1045B00011F096E911C0772321F09EE8872F762F1E
:1045C00005C0662371F096E8862F70E060E02AF05F
:1045D0009A95660F771F881FDAF7880F969587954B
:1045E00097F9089597F99F6780E870E060E0089573
:1045F0009FEF80EC089500240A94161617061806FB
:104600000906089500240A941216130614060506D6
:104610000895092E0394000C11F4882352F0BB0F67
:1046200040F4BF2B11F460FF04C06F5F7F4F8F4FCA
:104630009F4F089557FD9058440F551F59F05F3F05
:1046400071F04795880F97FB991F61F09F3F79F0B4
:1046500087950895121613061406551FF2CF469536
:10466000F1DF08C0161617061806991FF1CF8695B8
:104670007105610508940895E894BB27662777279C
:10468000CB0197F908950BD0C4CFB5DF28F0BADF7E
:1046900018F0952309F0A6CFABCF1124EECFCADFD7
:1046A000A0F3959FD1F3950F50E0551F629FF00145
:1046B000729FBB27F00DB11D639FAA27F00DB11D9E
:1046C000AA1F649F6627B00DA11D661F829F222727
:1046D000B00DA11D621F739FB00DA11D621F839FAE
:1046E000A00D611D221F749F3327A00D611D231F84
:1046F000849F600D211D822F762F6A2F11249F57D2
:1047000050408AF0E1F088234AF0EE0FFF1FBB1FF4
:10471000661F771F881F91505040A9F79E3F510593
:1047200070F060CFAACF5F3FECF3983EDCF3869544
:1047300077956795B795F795E7959F5FC1F7FE2B3E
:10474000880F911D9695879597F90895629FD001DE
:10475000739FF001829FE00DF11D649FE00DF11D3C
:10476000929FF00D839FF00D749FF00D659FF00DEB
:104770009927729FB00DE11DF91F639FB00DE11DD8
:10478000F91FBD01CF0111240895AA1BBB1B51E1E4
:1047900007C0AA1FBB1FA617B70710F0A61BB70BB1
:1047A000881F991F5A95A9F780959095BC01CD0156
:1047B000089597FB092E07260AD077FD04D0E5DF80
:1047C00006D000201AF4709561957F4F0895F6F792
:1047D000909581959F4F0895A1E21A2EAA1BBB1BAD
:1047E000FD010DC0AA1FBB1FEE1FFF1FA217B307BD
:1047F000E407F50720F0A21BB30BE40BF50B661FD3
:10480000771F881F991F1A9469F760957095809596
:1048100090959B01AC01BD01CF01089597FB092E36
:1048200005260ED057FD04D0D7DF0AD0001C38F47F
:1048300050954095309521953F4F4F4F5F4F0895CC
:10484000F6F790958095709561957F4F8F4F9F4FAC
:104850000895EE0FFF1F0590F491E02D0994F89450
:02486000FFCF88
:104862002573203A30782578202020002573203ABD
:10487200256920202000256300256400257300801F
:104882000020200002204348414E3A203F202010C1
:1048920020112012201320142015201620170200A8
:1048A2002020202020202020202020202020202006
:1048B2002020202020202020202020202020002016
:1048C20020202020202020202020202020202020E6
:1048D20020202020202020202020002063686172D8
:1048E2007320646F6E65004C494E4541520042414F
:1048F2004E442020004E5453430050414C2000258A
:104902006325322E3166005363616E6E696E672EC7
:104912002E000220204155544F204D4F4445204C3B
:104922004F434B000220204155544F204D4F4445E8
:10493200205345454B00484F4C442042414E4420B1
:104942005343414E4E455200202020202042414EEA
:1049520044205343414E4E455200205365747469BE
:104962006E67732073617665642E2E000252756E37
:104972003A2020204D494E3A2020202020204D412F
:10498200583A202020200200202020202020202011
:104992002020202020202020200053617665642ED4
:1049A2002020202020202020202000202020202025
:1049B2002020202020202020202020005361766506
:1049C200642E2052455354415254494E472E2E2EA6
:1049D20000494E56414C494420454550524F4D20C6
:1049E200434C4541524544000101020196001450D6
:1049F20080008F0400000100000000D3063C21B9B2
:104A020005BC05BF05C2052417000000003A183C8A
:104A120021AB17DB170B182818C11749178F18FF7E
:024A220018007A
:00000001FF
