:100000000C94E4000C940C010C940C010C940C0165
:100010000C940C010C940C010C940C010C940C012C
:100020000C940C010C940C010C940C010C940C011C
:100030000C940C010C940C010C940C010C940C010C
:100040000C9470080C940C010C940C010C940C0191
:100050000C940C010C940C010C940C010C940C01EC
:100060000C940C010C940C0100407A10F35A00A07F
:10007000724E18090010A5D4E80000E87648170071
:1000800000E40B54020000CA9A3B000000E1F505B1
:10009000000080969800000040420F000000A086FB
:1000A00001000000102700000000E803000000002D
:1000B0006400000000000A000000000001000000D1
:1000C00000002C76D888DC674F0823DFC1DFAE59EB
:1000D000E1B1B796E5E3E453C63AE651997696E87E
:1000E000E6C28426EB898C9B62ED407C6FFCEFBC02
:1000F0009C9F40F2BAA56FA5F490055A2AF75C932D
:100100006B6CF9676DC11BFCE0E40D47FEF520E662
:10011000B500D0ED902E0300943577050080841E45
:10012000080000204E0A000000C80C333333330FA0
:10013000986E12831141EF8D2114893BE65516CF3D
:10014000FEE6DB18D1844B381BF77C1D901DA4BB49
:10015000E424203284725E228100C9F124ECA1E5FE
:100160003D276E616E00696E66000000000024008D
:1001700027002A0000000000250028002B000000B6
:1001800000002300260029000404040404040404DD
:100190000202020202020303030303030102040832
:1001A00010204080010204081020010204081020E1
:1001B0000000000700020100000304060000000028
:1001C00000000000BB03360411241FBECFEFD8E0AF
:1001D000DEBFCDBF11E0A0E0B1E0E0E4F4E102C099
:1001E00005900D92AE31B107D9F711E0AEE1B1E063
:1001F00001C01D92AC33B107E1F711E0C8ECD1E0CA
:1002000004C02297FE010E941A0AC43CD107C9F714
:100210000E94DF090C941E0A0C940000283008F09C
:1002200027E03327DA01990F311D87FD9160009691
:100230006105710539F432602E5F3D9330E32A95F4
:10024000E1F708959F3F30F080387105610509F0AE
:100250003C5F3C5F3D93913008F08068911DDF93D7
:10026000CF931F930F93FF92EF92192F987F96953C
:10027000E92F96959695E90FFF27EE53FF4F9927A3
:100280003327EE24FF24A701E70105900894079483
:1002900028F4360FE71EF81E491F511D660F771F01
:1002A000881F991F0694A1F70590079428F4E70E7C
:1002B000F81E491F561FC11D770F881F991F661F03
:1002C0000694A1F70590079428F4F80E491F561FCD
:1002D000C71FD11D880F991F661F771F0694A1F7AE
:1002E0000590079420F4490F561FC71FD81F990F78
:1002F000661F771F881F0694A9F7849110951770C1
:1003000041F0D695C79557954795F794E7941A9578
:10031000C1F7E8E6F0E06894159015913591659184
:10032000959105907FE27395E118F10A430B560B06
:10033000C90BD009C0F7E10CF11E431F561FC91F9E
:10034000D01D7EF4703311F48A95E6CFE894015005
:1003500030F0080F0AF40027021708F4202F239525
:10036000022F7A3328F079E37D932A95E9F710C0BC
:100370007D932A9589F606949795679537951795F5
:100380001794E118F10A430B560BC90BD00998F0EA
:1003900023957E9173957A3308F070E37C93201354
:1003A000B8F77E9170617D9330F0839571E37D9312
:1003B00070E32A95E1F71124EF90FF900F911F91C0
:1003C000CF91DF91992787FD90950895FA01AA278B
:1003D000283051F1203181F1E8946F936E7F6E5F88
:1003E0007F4F8F4F9F4FAF4FB1E03ED0B4E03CD036
:1003F000670F781F891F9A1FA11D680F791F8A1F19
:10040000911DA11D6A0F711D811D911DA11D20D07F
:1004100009F468943F912AE0269F11243019305D39
:100420003193DEF6CF010895462F4770405D41932A
:10043000B3E00FD0C9F7F6CF462F4F70405D4A3377
:1004400018F0495D31FD4052419302D0A9F7EACF3F
:10045000B4E0A6959795879577956795BA95C9F76E
:1004600000976105710508959B01AC010A2E069461
:100470005795479537952795BA95C9F7620F731F1A
:10048000841F951FA01D0895FC01059061507040C8
:100490000110D8F7809590958E0F9F1F0895FC014D
:1004A0006150704001900110D8F7809590958E0FA3
:1004B0009F1F0895FC011382128288EE93E0A0E052
:1004C000B0E084839583A683B78380E191E0918334
:1004D00080830895FC016115710521F0613071057B
:1004E00049F404C0108A86E0818B089580E4808BF3
:1004F00088E0818B0895FC0164874587668747877C
:10050000089580E090E0089580E090E0089580E014
:1005100090E008950895FF920F931F93F62E86E0C2
:1005200060E00E948B0902E311E0C80163E00E94D1
:100530001A048FE1F822C8016F2D0E941A0486E088
:1005400061E00E948B091F910F91FF900895FF9227
:100550000F931F93F62E86E060E00E948B0902E362
:1005600011E0C80162E00E941A048FE3F822C8017A
:100570006F2D0E941A0486E061E00E948B091F9192
:100580000F91FF9008951F93CF93DF93EC01162FE7
:1005900086E060E00E948B0982E391E060E00E94C7
:1005A0001A04113049F0113018F0123071F407C0FC
:1005B00082E391E0688907C068896C6102C068893C
:1005C0006C6382E391E00E941A0486E061E00E947D
:1005D0008B09DF91CF911F910895EF92FF920F93B6
:1005E0001F937C0102E311E0C80167E00E941A0436
:1005F000C8016FEF0E941A0486E061E00E948B0937
:10060000F70187858F5F87871F910F91FF90EF908C
:100610000895EF92FF920F931F93FC01E7848EE100
:10062000E89E700111248685E80EF11C86E060E0EA
:100630000E948B0902E311E0C80164E00E941A04E1
:10064000C80163E00E941A04C80165E00E941A0410
:10065000C8016F2D0E941A04C80166E00E941A04A6
:10066000C8016E2D0E941A041F910F91FF90EF9008
:1006700008951F93CF93DF93EC01162F6C3731F45D
:100680000E94ED02CE010E9409030AC082E391E0BC
:1006900067E00E941A0482E391E0612F0E941A042D
:1006A00081E090E0DF91CF911F9108951F93CF9348
:1006B000DF93EC0186E061E00E944C0982E060E09B
:1006C0000E944C0982E061E00E948B0986E060E0B4
:1006D0000E948B0982E391E06CEE0E941A0482E38F
:1006E00091E06FEF0E941A04182F82E391E060E01E
:1006F0000E941A046889626082E391E00E941A04F1
:1007000062E370E080E090E00E94B80882E391E04C
:100710006CE60E941A041F7E82E391E0612F0E9422
:100720001A0410921F0110921E0117C060911E0141
:1007300070911F01605F82E391E00E941A0482E3DE
:1007400091E060E00E941A0480911E0190911F01C7
:10075000019690931F0180931E0180911E0190913C
:100760001F010C971CF3CE0161E00E94C302DF91D0
:10077000CF911F91089580E291E00E945A0208955E
:10078000EF92FF920F931F93CF93DF93C0E0D0E0DF
:1007900000E211E080E0E82E81E0F82E219680E270
:1007A00091E065E045E00E947B0280E291E00E94DA
:1007B000090300D000D000D0EDB7FEB73196ADB739
:1007C000BEB712961C930E931197F382E282D583E3
:1007D000C4830E943E048DB79EB706960FB6F89468
:1007E0009EBF0FBE8DBFC8010E94ED0293E0C83EC0
:1007F000D90711F4C0E0D0E06AE070E080E090E05A
:100800000E94B808CBCF0F931F9300E211E0C801FC
:1008100061E070E00E946A02C8010E945603C801AC
:1008200068E20E94A702C80169E10E948B021F9141
:100830000F9108956EBD0DB407FEFDCF8EB50895DE
:100840008DE061E00E944C098BE061E00E944C0960
:100850008CE060E00E944C098AE061E00E944C0953
:100860001CBC83E58CBD8DB58EB5089582E391E007
:100870000E94200408958FEF9FE70895DF93CF93A0
:10088000CDB7DEB7FE0139968D819E8160E04F8144
:1008900058859F010E944F04CF91DF9108952F92B8
:1008A0003F924F925F926F927F928F929F92AF9200
:1008B000BF92CF92DF92EF92FF920F931F93DF933D
:1008C000CF93CDB7DEB764970FB6F894DEBF0FBEF7
:1008D000CDBF3C01688B5A8B498B69011C01AE016D
:1008E0004F5F5F4F5C8B4B8BE989FA89488940FDEC
:1008F000659140FF6191FA8BE98B662309F4D7C3B8
:10090000653249F440FD859140FF8191FA8BE98B76
:100910008532B1F40CC06A3051F4D301ED91FC91F1
:100920000190F081E02DC1016DE009956AE0D301ED
:10093000ED91FC910190F081E02DC1010995D4CF9A
:10094000982F10E0882499241032B0F49B3269F07B
:100950009C3228F4903251F0933271F40BC09D32E6
:1009600039F0903349F4116028C01260146025C03A
:10097000186023C0106121C017FD2BC0892F805340
:100980008A3078F416FF06C0BAE09B9E902C1124A2
:10099000980E13C0EAE08E9E802C1124880E1062FF
:1009A0000CC09E3221F416FD82C3106406C09C3632
:1009B00011F4106802C0983661F4E989FA8948890F
:1009C00040FD959140FF9191FA8BE98B992309F0B5
:1009D000BBCF892F8554833020F4812F8061905EB6
:1009E00007C0892F8556833008F0E6C1812F8F7E9E
:1009F00086FD02C076E0972E6FE3F62EF82295363C
:100A000019F450E4F52A07C0963619F480E8F82A5C
:100A100002C091109A94F7FE0BC09BE3991520F445
:100A200027E05CE3B52E0DC0B92CB39427E009C0D4
:100A3000A7E0A91520F447E0942E27E001C0292D56
:100A4000BB24F6013496FD87EC87D6016D917D912C
:100A50008D919C91AE014F5F5F4F0B2D0E940E0157
:100A60006C010981E02FF0E0FF87EE8700FF05C0F1
:100A7000FE85F3FD02C01DE209C0F1FE02C01BE2CB
:100A800005C0F2FC02C010E001C010E28E859F8517
:100A90008C709070892B09F444C0112311F483E009
:100AA00001C084E0881510F088240EC0881AF3FC79
:100AB0000BC0D301ED91FC910190F081E02DC101BB
:100AC00060E209958A94A9F7112349F0D301ED91C9
:100AD000FC910190F081E02DC101612F0995BE8547
:100AE000B3FF03C002E611E012C006E611E00FC03A
:100AF000E114F10409F06052D301ED91FC910190F1
:100B0000F081E02DC10109950F5F1F4F05C0EF2C4B
:100B1000FF24B0E1EB22FF24F8016491662341F742
:100B200048C1F7FE13C0BC0CFE85F4FF04C08A81E7
:100B3000813309F4BA941B141CF0BB24B3942DC068
:100B400048E04B1550F538E0B32E27C0F6FC25C021
:100B5000892D90E08C159D054CF05CEFC5165FEF7C
:100B6000D50624F080E8F82A01C09A94992049F02B
:100B7000E2E0F0E0EC0FFD1FE90DF11D8081803314
:100B8000A1F3F7FE0AC0B92CB394892D90E0C816E2
:100B9000D90614F0992401C09C18F7FC03C025E085
:100BA00030E009C01C141D041CF021E030E003C03B
:100BB00096012F5F3F4F112311F02F5F3F4F992078
:100BC00029F0892D90E00196280F391F882D90E09B
:100BD0002817390714F0882401C0821A4F2C552495
:100BE000C20189709070892B59F00CC0D301ED912E
:100BF000FC910190F081E02DC10160E209958A9499
:100C00008820A1F7112349F0D301ED91FC910190C7
:100C1000F081E02DC101612F099543FE0BC00CC08E
:100C2000D301ED91FC910190F081E02DC10160E3D1
:100C300009958A948820A1F7F7FE51C08601D7FE56
:100C400002C000E010E076010894E11CF11CE01AFB
:100C5000F10AE1E0F0E0EC0FFD1FEE0EFF1E2601B1
:100C60004B185108892D90E0AA24BB24A81AB90A70
:100C7000FFEF0F3F1F0749F4D301ED91FC91019065
:100C8000F081E02DC1016EE20995C016D10634F065
:100C9000401651061CF4F701608101C060E3015069
:100CA00010400894E11CF11C0A151B054CF0D301FF
:100CB000ED91FC910190F081E02DC1010995D8CF13
:100CC0000C151D0541F48A81863320F4853319F40F
:100CD000BE85B4FF61E3D301ED91FC9165C06A81EB
:100CE000613309F00F7ED301ED91FC910190F08109
:100CF000E02DC10109959920E1F0D301ED91FC911E
:100D00000190F081E02DC1016EE2099512E0E1E071
:100D1000F0E0EC0FFD1FE10FF11D60811F5FD301BB
:100D2000ED91FC910190F081E02DC10109959A941B
:100D300071F7D301ED91FC910190F081E02D44FC1D
:100D400002C065E601C065E4C1010995D7FC05C094
:100D5000C114D10441F404FF06C0D094C194D10859
:100D6000D3946DE201C06BE2D301ED91FC9101904F
:100D7000F081E02DC101099560E305C06F5FE6EFEA
:100D8000FFEFCE0EDF1EFAE0CF16D104BCF7D30181
:100D9000ED91FC910190F081E02DC1010995D30105
:100DA000ED91FC916C2D605D0190F081E02DC10111
:100DB0000995CC84DD8478C1933631F0933799F06E
:100DC000933509F061C023C0F601808189835E01FB
:100DD0000894A11CB11C42E050E0C40ED51E21E0D5
:100DE000E22EF12C12C0D601AD90BC9016FD03C0CE
:100DF0006FEF7FEF02C0692D70E0E2E0F0E0CE0E11
:100E0000DF1EC5010E944F027C011F7713C0D6016F
:100E1000AD90BC9016FD03C06FEF7FEF02C0692D4F
:100E200070E0E2E0F0E0CE0EDF1EC5010E94440259
:100E30007C01106813FF0BC023C0D301ED91FC911E
:100E40000190F081E02DC10160E209958A94882D1E
:100E500090E0E816F90688F313C0F50117FD6591D7
:100E600017FF61915F01D301ED91FC910190F08139
:100E7000E02DC101099581108A940894E108F108D8
:100E8000E114F10451F710C1943611F0993699F537
:100E900017FF0AC0F601208131814281538184E02D
:100EA00090E0C80ED91E0CC0D6018D919C919C017A
:100EB000442737FD4095542FE2E0F0E0CE0EDF1ED0
:100EC0009FE6F92EF12257FF09C0509540953095C5
:100ED00021953F4F4F4F5F4FF0E8FF2ACA01B901FC
:100EE000AE014F5F5F4F2AE030E00E94E601E82E3E
:100EF0004B89E41A41C0953721F41F7E2AE030E087
:100F00001CC0197F9F3661F0903720F4983509F0A6
:100F1000CEC00FC0903739F0983709F0C8C004C070
:100F200028E030E00AC0106114FD146020E130E0D8
:100F300004C014FD166020E132E017FF08C0D6019E
:100F40006D917D918D919C91E4E0F0E008C0D60117
:100F50008D919C91BC0180E090E0E2E0F0E0CE0E4B
:100F6000DF1EAE014F5F5F4F0E94E601E82EFB8956
:100F7000EF1A8FE7F82EF122F6FE0BC04EEFF422A7
:100F8000E91438F4F4FE07C0F2FC05C05FEEF52268
:100F900002C01E2D01C0192DF4FE0DC0FE01EE0D84
:100FA000F11D8081803319F489EEF82208C01F5F9B
:100FB000F2FE05C003C08F2D867809F01F5F0F2D4C
:100FC000F3FC18C0F0FE13C0181510F09E2C0FC0D3
:100FD0009E2C980C911A182D0AC0D301ED91FC910A
:100FE0000190F081E02DC10160E209951F5F1815A5
:100FF000A0F304C0181510F4811A01C0882404FF5E
:1010000017C0D301ED91FC910190F081E02DC10159
:1010100060E3099502FF29C0D301ED91FC91019095
:10102000F081E02D01FD02C068E712C068E510C044
:10103000802F8678D1F001FF02C06BE201C060E230
:10104000F7FC6DE2D301ED91FC910190F081E02D70
:10105000C10109950AC0D301ED91FC910190F08185
:10106000E02DC10160E309959A94E914A0F3EA9494
:10107000D301ED91FC91A1E0B0E0AC0FBD1FAE0D2E
:10108000B11D0190F081E02DC1016C910995EE2018
:1010900071F70AC0D301ED91FC910190F081E02D30
:1010A000C10160E209958A948820A1F71DCC64965D
:1010B0000FB6F894DEBF0FBECDBFCF91DF911F9169
:1010C0000F91FF90EF90DF90CF90BF90AF909F90E7
:1010D0008F907F906F905F904F903F902F900895EA
:1010E0001F920F920FB60F9211242F933F938F935D
:1010F0009F93AF93BF938091370190913801A09156
:101100003901B0913A0130913B010196A11DB11D09
:10111000232F2D5F2D3720F02D570196A11DB11DD6
:1011200020933B018093370190933801A0933901BC
:10113000B0933A018091330190913401A09135012F
:10114000B09136010196A11DB11D8093330190939A
:101150003401A0933501B0933601BF91AF919F91B7
:101160008F913F912F910F900FBE0F901F90189568
:101170009B01AC017FB7F8948091330190913401C9
:10118000A0913501B091360166B5A89B05C06F3FAF
:1011900019F00196A11DB11D7FBFBA2FA92F982F5D
:1011A0008827860F911DA11DB11D62E0880F991F30
:1011B000AA1FBB1F6A95D1F7BC012DC0FFB7F894D9
:1011C0008091330190913401A0913501B0913601A5
:1011D000E6B5A89B05C0EF3F19F00196A11DB11D12
:1011E000FFBFBA2FA92F982F88278E0F911DA11D01
:1011F000B11DE2E0880F991FAA1FBB1FEA95D1F726
:10120000861B970B885E9340C8F2215030404040C7
:10121000504068517C4F211531054105510571F64B
:101220000895789484B5826084BD84B5816084BD5E
:1012300085B5826085BD85B5816085BDEEE6F0E04F
:10124000808181608083E1E8F0E0108280818260AB
:101250008083808181608083E0E8F0E0808181602C
:101260008083E1EBF0E0808184608083E0EBF0E05C
:10127000808181608083EAE7F0E080818460808300
:1012800080818260808380818160808380818068AA
:1012900080831092C1000895CF93DF93482F50E0D0
:1012A000CA0184569E4FFC01349148575E4FFA01A3
:1012B0008491882369F190E0880F991FFC01E65919
:1012C000FE4FA591B491FC01EC58FE4FC591D4910D
:1012D000662351F42FB7F8948C91932F909589231E
:1012E0008C93888189230BC0623061F42FB7F89406
:1012F0008C91932F909589238C938881832B88835D
:101300002FBF06C09FB7F8948C91832B8C939FBFFF
:10131000DF91CF910895482F50E0CA0180559E4F2C
:10132000FC012491CA0184569E4FFC0194914857B8
:101330005E4FFA013491332309F440C0222351F166
:10134000233071F0243028F42130A1F0223011F53F
:1013500014C02630B1F02730C1F02430D9F404C0D5
:10136000809180008F7703C0809180008F7D809373
:10137000800010C084B58F7702C084B58F7D84BD96
:1013800009C08091B0008F7703C08091B0008F7D3D
:101390008093B000E32FF0E0EE0FFF1FEC58FE4FFC
:1013A000A591B4912FB7F894662321F48C91909570
:1013B000892302C08C91892B8C932FBF0895CF93E2
:1013C000DF930E9411090E940304C0E0D0E00E9454
:1013D000C0032097E1F30E940000F9CFCF92DF9283
:1013E000EF92FF920F931F93CF93DF937C016B01DA
:1013F0008A01C0E0D0E00FC0D6016D916D01D70128
:10140000ED91FC910190F081E02DC7010995C80F85
:10141000D91F015010400115110571F7CE01DF9160
:10142000CF911F910F91FF90EF90DF90CF90089593
:10143000EE0FFF1F0590F491E02D0994F894FFCF73
:10144000546573743A2025692020200000000000B4
:0E1450003903EE098102840287028A023B04FE
:00000001FF
